:020000040800F2
:1000000048D50120E902000899310008632C000856
:1000100039310008B70A00086152000800000000EA
:10002000000000000000000000000000394D000842
:10003000BB0A000800000000C7030008F54D0008D7
:1000400023030008230300082303000823030008F8
:1000500023030008230300082303000823030008E8
:1000600023030008230300082303000823030008D8
:1000700023030008230300082303000823030008C8
:1000800023030008230300082303000823030008B8
:1000900023030008230300082303000823030008A8
:1000A0002303000823030008230300082303000898
:1000B00023030008794E00082303000823030008E7
:1000C0002303000823030008230300082303000878
:1000D0002303000809520008230300082303000833
:1000E0002303000823030008230300082303000858
:1000F0002303000823030008230300082303000848
:100100002303000823030008230300082303000837
:100110002303000823030008230300082303000827
:100120002303000823030008230300082303000817
:1001300023030008450B00082303000823030008DD
:1001400023030008230300082303000823030008F7
:1001500023030008230300082303000823030008E7
:1001600023030008230300082303000823030008D7
:1001700023030008230300082303000800000000F5
:1001800023030008230300082303000823030008B7
:1001900023030008230300082303000823030008A7
:1001A00023030008230300082303000800F002F8DB
:1001B00000F069F80AA090E8000C82448344AAF198
:1001C0000107DA4501D100F05EF8AFF2090EBAE896
:1001D0000F0013F0010F18BFFB1A43F0010318477B
:1001E000E0C9000000CA00000A444FF0000C10F8FB
:1001F000013B13F0070408BF10F8014B1D1108BFA5
:1002000010F8015B641E05D010F8016B641E01F844
:10021000016BF9D113F0080F1EBF10F8014BAD1C94
:100220000C1B09D16D1E58BF01F801CBFAD505E0B2
:1002300014F8016B01F8016B6D1EF9D59142D6D30C
:10024000704700000023002400250026103A28BF34
:1002500078C1FBD8520728BF30C148BF0B60704738
:10026000642900F04181782900F07A81732900F037
:100270008683002070471FB50CF058FB00F04DFA44
:100280001FBD10B510BD00F0E3FB1146FFF7F3FFF3
:1002900008F066FB00F001FC03B4FFF7F2FF03BCBB
:1002A00004F0E7FF30BF72B6704762B6704780F364
:1002B000088870470B49D1F800C04A685CF8043BD5
:1002C0001068184442F8040B8C4528BFA1F1DC0CDF
:1002D0008A4228BFA1F1DC02C1F800C04A6020F0C8
:1002E00000407047E0CE012011488047DFF844000D
:1002F000016841F470010160BFF34F8FDFF83800EF
:10030000016821F040410160BFF36F8F0B48004747
:10031000FEE7FEE7FEE7FEE7FEE7FEE7FEE7FEE7B5
:10032000FEE7FEE706480749074A084B704700000A
:10033000154E000888ED00E034EF00E0AD01000844
:1003400048CF012048D5012048D1012048D10120C3
:10035000EFF3098141B1F1EE101A40F8041D20EDD0
:10036000200A29490A6810607047B0EC200A02C8C8
:10037000E1EE101A25490A6810607047EFF310800B
:1003800072B6704780F31088704721484FF0FF0124
:100390000170002080F309881E48016881F30888F5
:1003A0001D48012101701D484FF08051016062B667
:1003B000FEE71A484FF080510160704717484FF030
:1003C00080510160704772B6EFF3098028B1203880
:1003D00080E8F00F0C490968086000B510488047B4
:1003E0005DF804EB0F4810490A7802700648074987
:1003F0000A680260106890E8F00F203080F30988E6
:100400004EF0F40E62B670475801002060010020E3
:1004100022ED00E0780100205201002004ED00E010
:100420009941000847010020480100207047000062
:100430000FB4044910B503AA029800F0A5FA10BC45
:100440005DF814FB4800002070B50446856900681B
:10045000C10601D5302600E02026C00707D070BDB8
:10046000D4E9012130469047206A401C20626D1E6D
:10047000F6D570BD70B5044685690078C00707D110
:1004800070BDD4E9012120209047206A401C2062E1
:100490006D1EF6D570BD70B50C460546012A05D017
:1004A0002878800600D5EA69002302E0012305E0F0
:1004B0005B1C934202D2E05C0028F9D1A869E618DF
:1004C000C01AA861286A184428622846FFF7BCFFB2
:1004D00004E0D5E9012114F8010B9047B442F8D3A8
:1004E0002846FFF7C7FF70BD2DE9F04106460024FE
:1004F00010687529314616A510D0AFF3008000288A
:1005000002DA404213A507E031688A0701D512A537
:1005100002E0490704D511A5012401E0AFF30080F2
:1005200000210A2206F1240709E0B0FBF2FCB0FB2F
:10053000F2F302FB1C00303078541846491C0028A6
:10054000F3D123462A463046BDE8F04100F0ACB96D
:10055000000000002D0000002B0000002000000023
:1005600070B504460D4621461068AFF3008021881F
:10057000090502D50F4A7A4402E00E4A7A440E3247
:10058000002104F1240305E000F00F060009965D48
:100590005E54491C0028F7D120780023000704D5B9
:1005A000702D02D009B1022311322046BDE87040FF
:1005B00000F07AB93AC500002DE9F05F894604469B
:1005C0004FF0000ADFF824B1FB44C0F820A0204619
:1005D000E168884700287DD0252806D0D4E901218C
:1005E0009047206A401C2062F1E700255F462046C4
:1005F000E16888472028064607DB312E05D2B81966
:1006000010F8200C08B10543F1E7A80701D525F043
:100610000405C4F81CA00027C4F818A02A2E09D08D
:10062000304604F01FFE38B304EB8708303EC8F8AC
:10063000186019E059F8041B204604EB8702916109
:10064000E1688847012F064618D1E069002820DAC2
:1006500025F020051DE0D8F8180000EB800006EB1F
:1006600040003038C8F818002046E1688847064640
:1006700004F0F8FD0028EED1012F0AD02E2E08D16B
:100680002046E16888477F1C0646022F45F020057A
:10069000C4DBA069002803DA404245F00105A061EF
:1006A000E80701D025F01005A6B1A6F141001928F0
:1006B00002D8203645F400654A463146204625607A
:1006C0004D46FFF7CDFD60B1012807D0ED1D25F0A7
:1006D000070000E007E000F1080978E705F10409E8
:1006E00075E730467AE7206ABDE8F09F10C5000044
:1006F0000B4910B5A1F17C020A4CC2E9371237212F
:1007000006E000EB104342F82130074B00FB0340AA
:100710000B1EA1F10101F4DC10BD0120E8E700008F
:1007200080CE0120E119D666CD0D010040EA01031B
:1007300010B59B070FD1042A0DD310C808C9121F8A
:100740009C42F8D020BA19BA884201D9012010BDC4
:100750004FF0FF3010BD1AB1D30703D0521C07E091
:10076000002010BD10F8013B11F8014B1B1B07D1F5
:1007700010F8013B11F8014B1B1B01D1921EF1D166
:10078000184610BD032A40F2308010F0030C00F030
:10079000158011F8013BBCF1020F624498BF11F8BB
:1007A00001CB00F8013B38BF11F8013BA2F1040274
:1007B00098BF00F801CB38BF00F8013B11F00303EC
:1007C00000F0F480083AC0F0088051F8043B083A81
:1007D00051F804CBA0E80810F5E7121D5CBF51F8F2
:1007E000043B40F8043BAFF30080D20724BF11F86C
:1007F000013B11F801CB48BF11F8012B24BF00F8D1
:10080000013B00F801CB48BF00F8012B70474FF0C7
:1008100000020429C0F0128010F0030C00F01B80CD
:10082000CCF1040CBCF1020F18BF00F8012BA8BFDB
:1008300020F8022BA1EB0C0100F00DB85FEAC17C9F
:1008400024BF00F8012B00F8012B48BF00F8012B52
:1008500070474FF0000200B5134694469646203983
:1008600022BFA0E80C50A0E80C50B1F12001BFF469
:10087000F7AF090728BFA0E80C5048BF0CC05DF8CF
:1008800004EB890028BF40F8042B08BF704748BF1D
:1008900020F8022B11F0804F18BF00F8012B704791
:1008A00070477047704770472DE9F0470D469946ED
:1008B0009246044600F124080168880604D5E069E0
:1008C00021F01001216000E00120A84201DD471B5A
:1008D00000E00027A1697A1902EB0900081AA0615B
:1008E0002078C00602D42046FFF7AEFD002608E0BF
:1008F000D4E901211AF806009047206A401C761CB2
:1009000020624E45F4DB2078C0060AD52046FFF76A
:100910009BFD06E0D4E9012130209047206A401C6D
:100920002062381EA7F10107F4DC07E0D4E90121B9
:1009300018F805009047206A401C2062281EA5F187
:100940000105F3DC2046FFF795FD2078000602D56F
:100950000220BDE8F0870120FBE710B5436913B121
:10096000AFF3008001E0FFF796FD012010BD127883
:1009700000F124010A7000224A700122EDE711689B
:100980004FF0FF32E9E70000074B70B50D467B449E
:1009900000F047F80446284600F056F810B14FF032
:1009A000FF3070BD204670BDC35E000010B5203A18
:1009B000C0F00B80B1E81850203AA0E81850B1E818
:1009C0001850A0E81850BFF4F5AF5FEA027C24BFCE
:1009D000B1E81850A0E8185044BF18C918C0BDE8C5
:1009E00010405FEA827C24BF51F8043B40F8043B8E
:1009F00008BF7047D20728BF31F8023B48BF11F843
:100A0000012B28BF20F8023B48BF00F8012B70479C
:100A100000487047E8CE012001694A1C026108784D
:100A2000704700B58FB0CDE901310021059105492E
:100A30007944CDE9031011466846FFF7BDFD0FB0BC
:100A400000BD0000E5FFFFFF007B00F08000704765
:100A50007546FFF7DDFFAE4605006946534620F0B8
:100A60000700854618B020B5FFF75CFCBDE82040C4
:100A70004FF000064FF000074FF000084FF0000B5A
:100A800021F00701AC46ACE8C009ACE8C009ACE80D
:100A9000C009ACE8C0098D4670470446AFF300803A
:100AA0002046FFF7F9FB7047704770477047704763
:100AB00070477047704700BFFEE77047016801F557
:100AC0008051896941F00202016801F580518A6113
:100AD0007047016801F58051896941F4005201684D
:100AE00001F580518A61704738B5044600200090B6
:100AF000206800F58050806940F48011206800F57E
:100B000080508161206800F580508069009001204C
:100B100000F0BEFA0099206800F58050816138BD70
:100B2000014600200A6802F0004252B90A6802F445
:100B3000004232B90A6802F4807212B10A68C2F344
:100B40000D40704710B502F0A1FB01E007F0D0FEA8
:100B50000A49886AFFF7E4FF0028F7D140210748D7
:100B6000006800F58050416189020448006800F582
:100B70008050416102F09CFB10BD00000412002077
:100B800030B503461479557944EA0520084C0C44E5
:100B90002064D4782406957844EA0544557844EADC
:100BA0000524157844EA0500014C0C44606430BD0E
:100BB0000080024070B5AEB004460E46002526B156
:100BC0004FF40061E160C900A16000201190129013
:100BD0001390149015901690E06918B94FF4806046
:100BE000179001E0002017904FF40070189000203B
:100BF00019901A901B901C901D9040201E90002070
:100C00001F9020902190102022900020239024906B
:100C100025902690802027900020289029902A90C7
:100C20002B902C902D902068056871480540DDE9D7
:100C3000110108431399084314990843A168084314
:100C40001599084316990843E16808431799084322
:100C500018990843199908431A9908431B9908439E
:100C600005432068056020680568012000F010FA3F
:100C700020680560DDE91C0108431E9908431F999F
:100C8000084320990843219908432299084323994E
:100C900008432168486020684568012000F0F8F9A1
:100CA0002068456024982168886025982168C8607C
:100CB000206885694FF641700540DDE9261040EA5D
:100CC000014028990843299908432A9908432B99F8
:100CD000084305432068856120688569012000F08C
:100CE000D7F920688561DDE92C0108432168C861D6
:100CF0002068C569012000F0CBF92068C56100209B
:100D000001904FF000700290002003904FF400100B
:100D10000490002005900690079008900420099008
:100D2000C0050A9040120B9080010C9040120D906B
:100D300080200E9000200F901090206800F58050C9
:100D400085692C480540DDE9010108430399084302
:100D500004990843059908430699084307990843ED
:100D600008990843099908430543206800F5805015
:100D70008561206800F580508569012000F088F9C0
:100D8000206800F580508561DDE90A0108430C996F
:100D900008430D9908430E9908430F9940EA8100D2
:100DA0001099084340F40001206800F5805001606C
:100DB000206800F580500568012000F069F920687E
:100DC00000F580500560A069012809D1206800F570
:100DD0008050C06908490843216801F58051C86105
:100DE000002120466269FFF7CBFE2EB070BD0000E7
:100DF0000F8120FF233FDEF84000010038B5044694
:100E0000002000902068006840F00400216808601D
:100E1000206800680090012000F03AF900982168ED
:100E2000086038BD38B5044600200090206800688E
:100E300040F00800216808602068006800900120E8
:100E400000F026F900982168086038BD10B50A48FE
:100E50000168002008F05CFB08480168002008F0E9
:100E600057FB07480168002008F052FB054801685D
:100E7000002008F04DFB10BD500000205400002061
:100E8000580000205C00002010B54FF4A071002035
:100E900008F050FB0D490860A021002008F04AFB33
:100EA0000B49086043F68831002008F043FB0949EC
:100EB000086041F6C451002008F03CFB0649086078
:100EC00000BF00BF00BF00BF002010BD50000020C9
:100ED00054000020580000205C00002010B5FFF7EF
:100EE000D3FF08B1012010BD07F0AAFC58B1084893
:100EF00028B1084818B1084808B1084808B9FFF7F0
:100F0000A5FF0220EFE7064807F068FB0020EAE7AC
:100F10005000002054000020580000205C000020F9
:100F2000A0BB012030B50246002300240868012838
:100F300016D013686FF30E03D1E901052843CD687D
:100F400028430D6928434D6928438D692843CD699D
:100F500028430D6A28434D6A28430343136019E070
:100F600013686FF30E03D1E9070528434D6A284340
:100F7000034354686FF30E04D1E901052843CD689B
:100F800028430D6928434D6928438D69284304434C
:100F900013605460002030BD0246506940EA4100B1
:100FA000506100207047F8B506460C4615460020F3
:100FB00000900027D4E900010843A168491E40EAD7
:100FC0004110E16840EA412000900098306100F053
:100FD000BFFD074609E0681C38B125B100F0B8FD37
:100FE000C01BA84201D90320F8BDB06900F0200061
:100FF0000028F0D100BFF7E770B503461546002280
:101000000024012D1FD09A6802F070420868401E2B
:101010004E68761E40EA06168868401E46EA00269C
:10102000C868401E46EA0036088A401E46EA004666
:10103000888A401E46EA0056087E401E46EA006046
:1010400002439A6022E0DA6802F070420868401EAB
:101050004E68761E40EA06168868401E46EA00265C
:10106000088A401E46EA0046087E401E46EA0060A6
:1010700002439C6804F07044C868401E0603888AD6
:10108000401E46EA00500443DA609C60002070BDB8
:1010900031B5002400F05CFD044600BF00F058FDAF
:1010A000001B00998842F9D338BD70B504460D463F
:1010B0001646002200BF94F84500012801D1022005
:1010C00070BD012084F8450000BF022084F8440070
:1010D000A56200221FE005EB42114FF000400860BE
:1010E00044F2F4504860C2EBC21000EB400006EB43
:1010F00080008860A069012803D1486820F0004082
:101100004860581E904204D905EB42102030C86058
:1011100000E0CD60521C9A42DDD3206800F580507B
:10112000C560012084F8440000BF002084F8450019
:1011300000BF00BFC4E770B504460D461646002246
:1011400000BF94F84500012801D1022070BD0120A4
:1011500084F8450000BF022084F84400E5620022C4
:101160001BE005EB42114FF480100860C2EBC21087
:1011700000EB400006EB80008860E06918B9086861
:1011800040F440000860581E904204D905EB42101C
:101190002030C86000E0CD60521C9A42E1D3206844
:1011A00000F580500561012084F8440000BF002054
:1011B00084F8450000BF00BFC8E70146002200BF19
:1011C00091F84500012801D102207047012081F8E3
:1011D000450000BF022081F84400886A006800F0E2
:1011E0000040002838D1886A006800F48070F0B1AF
:1011F000886B401C8863886B012801D1886A08636A
:101200008B6A4B63886A0068C0F30D40021FCA6393
:10121000086B83680B64886AC0688862012081F863
:10122000440000BF002081F8450000BFCDE7886A78
:10123000006800F4007048B1886A086300234B63BB
:1012400001238B63886AC068886205E0886B401C54
:101250008863886AC0688862012081F8440000BF02
:10126000002081F8450000BF0120AEE72DE9FC41D8
:1012700004460025002001909E4E0027804614B9A8
:101280000120BDE8FC8100BF002000909A48006862
:1012900040F48040984908600846006800F48040A7
:1012A000009000BF00BF9548006820F400009349FB
:1012B000086008460068216A08439049086094F86D
:1012C000440028B9002084F84500204600F02EF99B
:1012D00089483438006840F0007087493439086024
:1012E0000846006820F000700860206800F5805013
:1012F000006840F00101206800F58050016000BFE7
:10130000206800F58050006800F001000028F7D147
:101310002068056925F01C0500F066FE0646784841
:10132000864205D37748864202D245F008051AE086
:101330007448864205D36F48864202D245F00C05B8
:1013400011E06C48864203D36F48864200D20AE01F
:101350006D48864205D36D48864202D245F00405A9
:1013600001E045F01005206805614FF400420021BE
:10137000204600F091FA48B14FF00108414620465E
:10138000FFF718FC012084F844007AE7FF20FFF7FC
:101390007FFE6068002872D000F0DAFB074600BFCD
:1013A00001AA0121204600F067F900F0D1FBC01B23
:1013B00042F21071884213D94FF00108414620468D
:1013C000FFF7F8FB012084F8440000BF002084F8F8
:1013D000450000BF4EA00199FFF72AF8032050E70F
:1013E000019800F004000428DAD149A00199FFF720
:1013F0001FF84FF480520021204600F04DFA48B10A
:101400004FF0010841462046FFF7D4FB012084F845
:10141000440036E700F09CFB074600BF01AA01210B
:10142000204600F029F900F093FBC01B42F2107136
:1014300088420FD94FF0010841462046FFF7BAFB1A
:10144000012084F8440000BF002084F8450000BF5C
:10145000032016E7019800F020002028DED101AA21
:101460001F21204600F008F950B14FF00108414615
:101470002046FFF79FFB012084F8440001E715E0B8
:10148000019800F0100018B14FF40061E16001E034
:101490000021E160019800F00400042802D100213D
:1014A000A1601DE04FF48041A16019E0E068C0F345
:1014B000CF00A168C1F34F0140EA0102002120469C
:1014C00000F0EAF948B14FF0010841462046FFF725
:1014D00071FB012084F84400D3E6FF20FFF7D8FD1C
:1014E00041462046FFF766FB012084F844000020B7
:1014F000C7E60000008793034438024004380140E7
:10150000002D3101C00E160200E1F50580D1F00872
:10151000636865636B206C696E6B207068797265B7
:1015200067203D202325303878200A0010B586B08A
:10153000044600BF00BF002000904A48006840F009
:101540000070484908600846006800F0007000908C
:1015500000BF00BF00BF002000900846006840F0B8
:10156000806008600846006800F08060009000BF5E
:1015700000BF00BF002000900846006840F00060F7
:1015800008600846006800F00060009000BF00BFDF
:1015900000BF00BF002000900846006840F0010036
:1015A00008600846006800F00100009000BF00BF1E
:1015B00000BF002000900846006840F0020008606C
:1015C0000846006800F00200009000BF00BF00BFA6
:1015D000002000900846006840F0040008600846BB
:1015E000006800F00400009000BF00BF00BF0020B2
:1015F00000900846006840F0400008600846006817
:1016000000F04000009000BF00BF86200190022043
:10161000029000200390032004900B20059001A964
:10162000114800F081F94FF40060019001A90F48C2
:1016300000F07AF93220019001A90D4800F074F908
:101640004FF4C040019001A90A4800F06DF9002252
:1016500011463D2000F0CCFA3D2000F0BCFA06B067
:1016600010BD00003038024000000240000402407B
:101670000008024000180240F8B504460E4617461E
:1016800000250020009094F84400822801D1022017
:10169000F8BD822084F844002068056905F01C0527
:1016A000208A4FF4784101EAC0200543481100EA3E
:1016B0008610054325F0020545F001052068056107
:1016C00000F046FA009012E000F042FA0099401A49
:1016D000B0F5803F09D3012084F8440000BF00200A
:1016E00084F8450000BF0320D2E72068056905F0B3
:1016F00001000028E8D12068406980B238600120EC
:1017000084F844000020C3E710B5044600BF94F8F5
:101710004500012801D1022010BD012084F84500B8
:1017200000BF022084F844002046FFF77BFB2046E0
:10173000FFF764FB2046FFF7D7F92046FFF7C9F90A
:101740002046FFF7BBF9012084F8440000BF0020C9
:1017500084F8450000BF00BFDEE770B502460023F5
:101760000025002400BF92F84500012801D1022085
:1017700070BD012082F8450000BF022082F84400BD
:1017800049B9012082F8440000BF002082F84500DA
:1017900000BF0120ECE7D06A006800F0004048B1CB
:1017A000122082F8440000BF002082F8450000BFEC
:1017B0000120DDE740F2F450814208D9B1FBF0F39B
:1017C000B1FBF0F600FB161010B15B1C00E001232A
:1017D000012B13D1D06A006840F04050D66A3060C7
:1017E000C1F30C00D66A7060D06A006840F0004017
:1017F000D66A3060D06AC068D06232E000242EE041
:10180000D06A006820F04050D66A30602CB9D06AA7
:10181000006840F08050D66A306040F2F450D66ADA
:101820007060581EA04210D1D06A006840F000508D
:10183000D66A3060581EC0EBC01000EB4000A1EB30
:101840008005C5F30C00D66A7060D06A006840F06D
:101850000040D66A3060D06AC068D062641C9C4286
:10186000CED3106800F58050406900F0040048B104
:101870000426106800F5805046610026106800F5C7
:1018800080504660012082F8440000BF002082F8AA
:10189000450000BF00BF6BE72DE9F04104460E464E
:1018A00017460025A84694F84400422802D1022099
:1018B000BDE8F081422084F844002068056905F005
:1018C0001C05208A4FF4784101EAC02005434811E5
:1018D00000EA8610054345F0020545F00105B8B25F
:1018E000216848612068056100F032F9804612E005
:1018F00000F02EF9A0EB0800B0F5803F09D30120DD
:1019000084F8440000BF002084F8450000BF032095
:10191000CEE72068056905F001000028E8D1012024
:1019200084F844000020C3E7F8B502460B460025C2
:10193000002400200021E6E0012606FA01F51E68D9
:1019400006EA0504AC4273D15E68022E02D05E68DE
:10195000122E13D1CF0802F1200656F827004E07A9
:10196000F70E0F26BE40B0434F07FF0E1E69BE4064
:101970003043CF0802F1200646F8270010684F00D8
:101980000326BE40B0431E7906F003064F00BE405A
:10199000304310605E68012E08D05E68022E05D0CC
:1019A0005E68112E02D05E68122E13D190684F002F
:1019B0000326BE40B0434F00DE68BE403043906017
:1019C000506801268E40B0431E79C6F300168E4043
:1019D00030435060D0684F000326BE40B0434F00F4
:1019E0009E68BE403043D0605E6806F08056B6F117
:1019F000805FA8D100BF00260096454E366846F4A9
:101A00008046434F3E603E46366806F48046009668
:101A100000BF00BF3F4E8F0856F827008E07370FD4
:101A20000F26BE40B0433C4EB24202D100262EE00B
:101A300068E03A4EB24201D1012628E0384EB24267
:101A400001D1022623E0374EB24201D103261EE027
:101A5000354EB24201D1042619E0344EB24201D1D2
:101A6000052614E0324EB24201D106260FE0314E77
:101A7000B24201D107260AE02F4EB24201D1082618
:101A800005E02E4EB24201D1092600E00A268F075A
:101A90003F0FBE4030431F4E8F0846F82700284EA8
:101AA0003068A0435E6806F48036B6F5803F00D10A
:101AB0002043234E3060361D3068A0435E6806F434
:101AC0000036B6F5003F00D120431D4E361D306074
:101AD000361D3068A0435E6806F48016B6F5801F98
:101AE00000D12043164E08363060361D3068A043C2
:101AF0005E6806F40016B6F5001F00D12043104EB4
:101B00000C363060491C1029FFF416AFF8BD0000F8
:101B100044380240083801400000024000040240FE
:101B200000080240000C0240001002400014024075
:101B300000180240001C0240002002400024024025
:101B4000003C01400AB1816101E00B0483617047F0
:101B500001480068704700003C000020024800680F
:101B6000401C0149086070473C00002010B50D483A
:101B7000006840F400700B4908600846006840F4B3
:101B8000806008600846006840F4807008600520A6
:101B900000F06CF80F2000F007F800F017F80020B4
:101BA00010BD0000003C024070B5044600F01CFA75
:101BB0004FF47A71B0FBF1F5284600F0BAFD00222F
:101BC0002146501E00F014F8002070BD08B500201A
:101BD000009000BF08BD00BF00F01F02012191402E
:101BE0004209920002F1E022C2F8001100BF7047E2
:101BF0002DE9F05F80460D461646002701F0CEFA2B
:101C0000074639462A46334601F00700C0F1070A65
:101C1000BAF1040F02D94FF0040A01E0C0F1070A3B
:101C2000D14600F1040ABAF1070F02D24FF0000AC0
:101C300001E0A0F1030AD4464FF0010A0AFA09FABA
:101C4000AAF1010A0AEA020A0AFA0CFA4FF0010B99
:101C50000BFA0CFBABF1010B0BEA030B4AEA0B048A
:101C60002146404601F0A2FABDE8F09F00BF00F017
:101C70000702064B19684FF6FF031940044B0B434C
:101C800043EA0221014B196000BF70470CED00E0F0
:101C90000000FA0538B5002400BF0020009023485A
:101CA000006840F08050214908600846006800F054
:101CB0008050009000BF00BF0120010491FAA1F103
:101CC000B1FA81F11A4A42F82100FFF741FF0446B8
:101CD00007E0FFF73DFF001BB0F57A7F01D9032035
:101CE00038BD1448406800F48030B0F5803FF0D132
:101CF0000120410491FAA1F1B1FA81F10C4A42F8B4
:101D00002100FFF725FF044607E0FFF721FF001B36
:101D1000B0F57A7F01D90320E2E70648406800F475
:101D20000030B0F5003FF0D10020D9E74038024044
:101D300000000E420070004070B504460E460025BB
:101D4000A748006800F00F00B0426FD2A4490E709F
:101D50000846006800F00F00B04201D0012070BDBD
:101D6000207800F00200022807D19E48006820F089
:101D7000F000A16808439B490860207800F001004A
:101D800000283ED06068012807D1964808380068CE
:101D9000C0F34040B8B90120E1E76068022802D0F2
:101DA0006068032807D18F4808380068C0F3406096
:101DB00048B90120D3E78B4808380068C0F34000D9
:101DC00008B90120CBE78748006820F0030061686C
:101DD000084384490860FFF7BBFE05466068012898
:101DE00010D108E0FFF7B4FE401B41F28831884271
:101DF00001D90320B3E77B48006800F00C000428F9
:101E0000F0D1CDE06068022811D108E0FFF7A0FE14
:101E1000401B41F28831884201D903209FE7714875
:101E2000006800F00C000828F0D1B9E024E06068F8
:101E3000032810D108E0FFF78BFE401B41F28831E8
:101E4000884201D903208AE76648006800F00C0048
:101E50000328F0D1A4E008E0FFF77AFE401B41F22E
:101E60008831884201D9032079E75E48006800F094
:101E70000C000028F0D193E0207800F00200022846
:101E800007D15848006820F0F000A1680843554980
:101E90000860207800F00100002877D060680128F1
:101EA00007D1504808380068C0F34040B8B9012055
:101EB00055E76068022802D06068032807D14948C6
:101EC00008380068C0F3406048B9012047E745483A
:101ED00008380068C0F3400008B901203FE74148D6
:101EE000006820F00300616808433E490860FFF77E
:101EF0002FFE05466068012810D108E0FFF728FE94
:101F0000401B41F28831884201D9032027E7354838
:101F1000006800F00C000428F0D137E06068022867
:101F200010D108E0FFF714FE401B41F288318842CF
:101F300001D9032013E72B48006800F00C000828A3
:101F4000F0D123E06068032810D108E0FFF700FE1D
:101F5000401B41F28831884201D90320FFE6214825
:101F6000006800F00C000328F0D10FE008E0FFF754
:101F7000EFFD401B41F28831884201D90320EEE693
:101F80001848006800F00C000028F0D114490E70C9
:101F90000846006800F00F00B04201D00120DEE6E4
:101FA000207800F00400042807D10E48006820F4CF
:101FB000E050E16808430B490860207800F0080011
:101FC000082808D10748006820F46040216940EAE9
:101FD000C100044908600F20FFF7E6FD0020BEE6BF
:101FE000003C02400838024010B500F045F80949AD
:101FF000096801F0F001F02292FAA2F2B2FA82F23C
:10200000D140054A515CC840044908600846006850
:1020100010BD00000838024036C900080400002046
:1020200010B5FFF7E1FF0749096801F4E0514FF4EB
:10203000E05292FAA2F2B2FA82F2D140024A515C24
:10204000C84010BD0838024036C9000810B5FFF777
:10205000CBFF0749096801F460414FF4604292FAEE
:10206000A2F2B2FA82F2D140024A515CC84010BDDD
:102070000838024036C9000870B50021002200234C
:102080000020274C246804F00C0424B1042C04D054
:10209000082C41D103E0234840E023483EE0204C97
:1020A000241F246804F03F011D4C241F246804F4FD
:1020B000800484B11C4CB4FBF1F5194C241F246836
:1020C00047F6C076344096FAA6F6B6FA86F6F4409D
:1020D00005FB04F20FE0134CB4FBF1F5104C241F88
:1020E000246847F6C076344096FAA6F6B6FA86F625
:1020F000F44005FB04F20A4C241F246804F4403425
:102100004FF4403595FAA5F5B5FA85F5EC40641C19
:102110006300B2FBF3F001E0024800BF00BF70BDF6
:10212000083802400024F40040787D0138B50446A8
:102130000025207800F00100002866D0F7480068EC
:1021400000F00C0004280DD0F448006800F00C00EA
:10215000082813D1F148001F006800F48000B0F592
:10216000800F0BD1ED4808380068C0F340400028CC
:102170004BD06068002848D1012038BD0020E749D5
:10218000891F0870FFF7E4FC054608E0FFF7E0FC54
:10219000401B41F28831884201D90320EDE7DF4836
:1021A00008380068C0F340400028EFD12079DB49AF
:1021B000891F08706068A0B1FFF7CAFC054608E0F7
:1021C000FFF7C6FC401B41F28831884201D9032049
:1021D000D3E7D24808380068C0F340400028EFD069
:1021E00013E0FFF7B5FC054608E0FFF7B1FC401B24
:1021F00041F28831884201D90320BEE7C748083838
:102200000068C0F340400028EFD1207800F00200C1
:10221000022869D1C148006800F00C0058B1BF48DD
:10222000006800F00C00082821D1BC48001F00689D
:1022300000F48000D8B9B94808380068C0F34000FD
:1022400020B1E068012801D0012096E7B3480838A2
:10225000006820F0F800F82292FAA2F2B2FA82F2B4
:10226000216991400843AD49083908603CE0E068C5
:1022700028B30120AA490860FFF76AFC054606E07A
:10228000FFF766FC401B642801D9032075E7A348CB
:1022900008380068C0F340000028F1D09F48083893
:1022A000006820F0F800F82292FAA2F2B2FA82F264
:1022B00021699140084399490839086014E00020D9
:1022C00097490860FFF744FC054606E0FFF740FC2D
:1022D000401B642801D903204FE790480838006864
:1022E000C0F340000028F1D1207800F00800082851
:1022F0002CD16069A8B101208A490860FFF728FC49
:10230000054606E0FFF724FC401B642801D90320A2
:1023100033E782486C300068C0F340000028F1D0F9
:1023200014E000207F490860FFF712FC054606E034
:10233000FFF70EFC401B642801D903201DE77748F6
:102340006C300068C0F340000028F1D1207800F024
:10235000040004286FD100BF002000906F4838307F
:10236000006840F080506D493831086008460068C8
:1023700000F08050009000BF00BF6B48006840F440
:10238000807069490860FFF7E3FB054606E0FFF748
:10239000DFFB401B642801D90320EEE66248006899
:1023A00000F480700028F2D000205C496831087089
:1023B000FFF7CEFB054608E0FFF7CAFB401B41F2E2
:1023C0008831884201D90320D7E654486830006834
:1023D000C0F340000028EFD1207A504968310870DE
:1023E000A068A0B1FFF7B4FB054608E0FFF7B0FB1B
:1023F000401B41F28831884201D90320BDE647489D
:1024000068300068C0F340000028EFD013E0FFF709
:102410009FFB054608E0FFF79BFB401B41F288311C
:10242000884201D90320A8E63C4868300068C0F320
:1024300040000028EFD1A069F0B33848006800F0F0
:102440000C00082872D0A069022850D1002034491D
:102450000866FFF77DFB054606E0FFF779FB401BAA
:10246000642801D9032088E62C4808380068C0F3A6
:1024700040600028F1D1D4E90701084347F6C07253
:1024800092FAA2F2B2FA82F2616A91400843012202
:10249000A16AC2EB51014FF4403292FAA2F2B2FAB1
:1024A00082F2914008434FF0706292FAA2F2B2FABF
:1024B00082F2E16A914000E03AE008431749091FBF
:1024C0000860012016490866FFF742FB054606E052
:1024D000FFF73EFB401B642801D903204DE60F485F
:1024E00008380068C0F340600028F1D020E00020E8
:1024F0000B490866FFF72CFB054606E0FFF728FBB3
:10250000401B642801D9032037E6044808380068D6
:10251000C0F340600028F1D10AE007E0083802402B
:1025200000004742800E474200700040012024E630
:10253000002022E670B504460D460CB9012070BD9E
:1025400094F82C0028B9002084F82D00204600F0D3
:1025500011F8022084F82C00211D2068FEF7E2FC0F
:102560002946D4E90002FEF747FD012084F82C003B
:102570000020E4E710B586B0044600BF00200090BC
:102580004348006840F0010041490860084600687F
:1025900000F00100009000BF00BF00BF00200090CD
:1025A0003B480838006840F00400394908390860A1
:1025B0000846006800F00400009000BF00BF00BFA4
:1025C000002000900846006840F0080008600846B7
:1025D000006800F00800009000BF00BF00BF0020AE
:1025E00000900846006840F0100008600846006847
:1025F00000F01000009000BF00BF00BF002000905E
:102600000846006840F0200008600846006800F0B6
:102610002000009000BF00BF00BF002000900846CF
:10262000006840F0400008600846006800F0400084
:10263000009000BF00BF0D200190022002900120F9
:102640000390032004900C20059001A91148FFF786
:102650006BF94CF20370019001A90F48FFF764F980
:102660004FF68370019001A90C48FFF75DF94FF612
:102670003F00019001A90A48FFF756F948F23710C8
:10268000019001A90748FFF74FF906B010BD0000FF
:102690003838024000080240000C0240001002409E
:1026A000001402400018024070B504460D4694F82C
:1026B0002C00022800D170BD022084F82C0029468D
:1026C0002068FEF769FC012084F82C000020F2E766
:1026D00070B504460D46164694F82C00022800D129
:1026E00070BD022084F82C00324629462068FEF78F
:1026F0005AFC2868022803D1052084F82C0002E047
:10270000012084F82C000020EAE7042808D14FF0CB
:10271000E021096941F004014FF0E022116107E076
:102720004FF0E021096921F004014FF0E02211612E
:10273000704770B504462546681EB0F1807F01D30E
:1027400001200FE0681E4FF0E02148610F214FF09B
:10275000FF3000F02BFD00204FF0E02188610720C2
:102760000861002070BD70477047704710B504467F
:1027700020680069C0F34000D8B12068C068C0F389
:102780004000B0B16FF0020021680861012020769E
:102790002068806900F0030018B12046FFF7E5FFCC
:1027A00005E0204600F0ADF8204600F0ABF8002030
:1027B000207620680069C0F38000D8B12068C06826
:1027C000C0F38000B0B16FF00400216808610220FE
:1027D00020762068806900F4407018B12046FFF729
:1027E000C4FF05E0204600F08CF8204600F08AF88F
:1027F0000020207620680069C0F3C000D8B12068AE
:10280000C068C0F3C000B0B16FF008002168086173
:10281000042020762068C06900F0030018B120462B
:10282000FFF7A3FF05E0204600F06BF8204600F01C
:1028300069F80020207620680069C0F30010D8B144
:102840002068C068C0F30010B0B16FF010002168BC
:102850000861082020762068C06900F4407018B133
:102860002046FFF782FF05E0204600F04AF82046A8
:1028700000F048F8002020762068006900F0010090
:1028800058B12068C06800F0010030B16FF001005D
:1028900021680861204600F036F820680069C0F31E
:1028A000C01058B12068C068C0F3C01030B16FF0DC
:1028B0008000216808612046FFF755FF2068006905
:1028C000C0F3801058B12068C068C0F3801030B1E8
:1028D0006FF0400021680861204600F015F820687C
:1028E0000069C0F3401058B12068C068C0F34010C0
:1028F00030B16FF02000216808612046FFF734FFF7
:1029000010BD70477047704770477047014691F897
:1029100039007047F8B50446002500262068006895
:1029200000F001052068C06800F480767DB176B1C2
:1029300000BF002000902068006800902068406878
:10294000009000BF00BFE06B40F00100E063206832
:102950000068C0F340052068406900F001067DB1C1
:1029600076B100BF002000902068006800902068C9
:102970004068009000BF00BFE06B40F00400E063DF
:1029800020680068C0F380052068406900F00106F7
:102990007DB176B100BF00200090206800680090F3
:1029A00020684068009000BF00BFE06B40F002006C
:1029B000E06320680068C0F3C0052068406900F04B
:1029C00001067DB176B100BF00200090206800684C
:1029D000009020684068009000BF00BFE06B40F0AE
:1029E0000800E06320680068C0F340152068C068F4
:1029F00000F020061DB116B1204602F05DFA2068F5
:102A00000068C0F3C0152068C06800F080061DB1E2
:102A100016B1204602F0C0FB20680068C0F38015A4
:102A20002068C06800F040061DB116B1204602F0D3
:102A30002BFAE06B28B1012084F839002046FFF71B
:102A400064FFF8BD10B504460CB9012010BDA069A3
:102A500000B100E000BF94F8390028B9002084F8E4
:102A60003800204600F026F8022084F8390020685B
:102A7000C06820F400502168C860204602F07AFA4D
:102A80002068006920F4904021680861206840694E
:102A900020F02A00216848612068C06840F4005096
:102AA0002168C8600020E063012084F8390000201C
:102AB000CCE7000010B586B0044622492068884261
:102AC0003ED100BF002000901F48006840F0010088
:102AD0001D4908600846006800F00100009000BF32
:102AE00000BF00BF0020009017481430006840F07D
:102AF00010001549143108600846006800F0100005
:102B0000009000BF00BF48150190022002900120F4
:102B10000390022004900720059001A90B48FEF7BE
:102B200003FF4FF48060019001A90848FEF7FCFE06
:102B30002520FFF750F8032211462520FFF758F80B
:102B400006B010BD001001403038024000000240C5
:102B500030B50346002493F83940012C01D0122CE3
:102B600037D101B10AB9012030BD00BF93F8380058
:102B7000012801D10220F7E7012083F8380000BFC7
:102B800099629A85DA850020D86393F83900122873
:102B900003D1322083F8390002E0222083F8390083
:102BA0001868C06840F480701D68E8601868406963
:102BB00040F001001D68686100BF002083F8380004
:102BC00000BF1868C06840F020001D68E860002061
:102BD000CAE70220C8E700001D4A0168914236D1C9
:102BE0001C49098801F4004189BB1A49098801F48C
:102BF000804171B1184909780A2903D00021154A8A
:102C0000118024E01349098841F40041114A1180E0
:102C10001DE0114909780D2906D10E49098841F4B2
:102C200080410C4A118012E00B490978094A128848
:102C3000C2F30D02094B995406490988491C054AFB
:102C4000118011460988C72901DD002111807047D4
:102C5000001001404C0000204E000020C810002051
:102C6000704700BFFEE7000010B500200F49086064
:102C70000F48006820F440600D490860084600686D
:102C800040F48060086000200A49C1F894020220E4
:102C900002F05AFB012005490860022002F054FBB3
:102CA00000200449C1F8900210BD00009082434208
:102CB000001C02400080434200B587B000BF0020E6
:102CC00001901048006840F080000E4908600846F6
:102CD000006800F08000019000BF00BF302002902B
:102CE0000120039004900220059002A90648FEF7F7
:102CF0001BFE0120054908600549C1F8900207B094
:102D000000BD000030380240001C02409482434263
:102D10000080434210B500200F4908600F4800684A
:102D200020F440600D4908600846006840F4806067
:102D3000086001200A49C1F89402022002F004FB55
:102D4000012005490860022002F0FEFA0020044933
:102D5000C1F8900210BD000090824342001C024066
:102D60000080434270B5054600241648006820F4F0
:102D7000406014490860084600680860002616E0B4
:102D8000002011490860022002F0DEFA01200F49FC
:102D9000C1F890026006040E0B487C38006808B148
:102DA000601CC4B2012002F0CFFA701CC6B2082E1B
:102DB000E6DB15B9FFF7AEFF01E0FFF755FF204650
:102DC00070BD0000001C02409082434200804342DC
:102DD00070B504461548006820F440601349086047
:102DE0000846006840F480600860002010490860D0
:102DF000002517E0E0090E49091D08606006040E71
:102E0000022002F0A1FA01200A49C1F89002022032
:102E100002F09AFA002006490860022002F094FAB3
:102E2000681CC5B2082DE5DB70BD0000001C024027
:102E3000908243420080434210B50F48006820F45E
:102E400040600D4908600846006840F480600860F2
:102E500001200A4908600A49C1F89002042002F0E2
:102E600073FA002005490860042002F06DFA002082
:102E70000349C1F8900210BD001C024094824342F5
:102E80000080434210B50F48006820F440600D49AF
:102E900008600846006840F48060086000200A4925
:102EA00008600A49C1F89402042002F04DFA01209A
:102EB000054908600549C1F89402042002F044FA6B
:102EC00010BD0000001C024090824342008043423B
:102ED00010B500241348006820F4406011490860D0
:102EE00008460068086001200F49086002F02CFACB
:102EF00001200E49C1F8900202F026FA07E0601C9A
:102F0000C4B2FA2C03DDFFF7BDFF012010BD064857
:102F1000803800680028F2D10349091F086000BF0B
:102F2000F4E70000001C02409482434200804342C8
:102F30001CB5FDF7B8F90121072001F05CFE642003
:102F400002F0CCF90021072001F055FE642002F0C8
:102F5000C5F9FDF7AAF9184800788DF80000164861
:102F600040788DF80100144880788DF802001248EE
:102F7000C0788DF80300104800798DF804000E48E1
:102F800040798DF805000D480D4908600120486022
:102F900081030B488160C910C16000210182C0F823
:102FA00014D0012181610021C1614FF4000101624F
:102FB000FEF75CF91CBD0000A0BB012000800240B0
:102FC0000412002000B587B000BF00200190124815
:102FD000006840F00200104908600846006800F0F0
:102FE0000200019000BF00BF032002900120039067
:102FF00004900320059002A90848FEF795FC0122E1
:1030000011460648FEF79EFD012202210348FEF705
:1030100099FD07B000BD00003038024000040240B6
:10302000F0B5A1B00746002000900026002403E080
:10303000BE2001A90855641C082CF9DB082403E014
:10304000AA2001A90855641C102CF9DB4FF400706C
:1030500033490880084633A10A8842808978017183
:1030600031A10A8842828978017515302FA10A683A
:1030700002604A684260097A01720120284981F899
:1030800031000021264880F8321080F833100120EA
:10309000234981F846000021214880F84710492043
:1030A0000090BDF80000ADF8140001208DF8160066
:1030B000BDF800201A490DF11700FDF763FB13243A
:1030C00004E001A8005D3044C6B2641CBDF80000F5
:1030D0001330A042F5DC2046641C01A90E5425469D
:1030E00003E0552001A948556D1C04F108008542F4
:1030F000F7DB054603E0ED2001A948556D1C04F1FE
:1031000010008542F7DBBDF8000000F1240201A9A0
:103110003846FDF737FBBDF80000243021B0F0BD84
:103120007C0C002046495500534E300053544D331B
:10313000324634323900000000BFFEE710B50748C0
:103140000749086009F0DAF906490860084600688E
:1031500010B105A0FDF76CF910BD0000E1E2E3E459
:10316000340000202C0000206D756C6361737420A6
:10317000706362206E657720737563202E0A0000ED
:1031800010B503480188034806F0C8F810BD0000D8
:1031900038000020C50C002070470000024800687D
:1031A000C0F30220704700000CED00E010B50028CD
:1031B00007DA0A07140E054A00F00F031B1FD45448
:1031C00003E00A07130E024A135410BD18ED00E085
:1031D00000E400E02DE9F04105460E4614460027C4
:1031E0001148007818B112202070BDE8F0812878CD
:1031F000012808D0022807D0032802D0042804D1CF
:1032000000E000BF00BF00BF02E001202070ECE73B
:1032100000BFFDF7B3F807466E613846FDF7B2F818
:103220000020207000BFE0E74501002010B500F04D
:1032300013F801F0FBF901F027FA01F047FA01F069
:10324000C5F901F085F901F0DBFA01F07FFA01F030
:10325000A5FA00F019F810BD0848802102E0491EC7
:10326000002204C00029FAD1054A064B1A601A460A
:10327000126822F007021A607047000004CC012097
:1032800004CE012078010020704700000648007835
:10329000012808D105480078FF2804D203480078A7
:1032A000401C02490870704752010020450100206F
:1032B00010B500241A480078012830D1FDF75EF8D7
:1032C00004461848007820B116480078401E154979
:1032D000087014480078F8B913480078E0B901F094
:1032E000F1FA12481249097850F821001149086092
:1032F0000F4800781049097888420DD00D480068C1
:10330000C06B401C0B490968C8630C480068401C2E
:103310000A490860FDF752F82046FDF733F810BD62
:1033200052010020450100204601002014C3012065
:103330004801002060010020470100202C010020EE
:103340002DE9F04106460F464FF00008204800786E
:1033500010B10020BDE8F081FDF710F880461D484F
:103360000468006820B11B4800684068194908607B
:103370004046FDF707F8FCB1FDF700F88046164817
:103380000568D5B100680068134908604046FCF73D
:10339000F9FF6E6006EB8700A860EE602E61AF82D9
:1033A0000020E882022020700020208165600BA0B0
:1033B0006061204601F0BEF808E0064800686060E1
:1033C000044804604046FCF7DDFF00242046C1E7C6
:1033D00045010020300100206C0100203F0000006A
:1033E0002DE9F0470446894615464FF0000A20783B
:1033F000022804D0012028702046BDE8F087354817
:10340000007818B10F2028702046F6E7FCF7B6FFC9
:103410008246A07A10B14FF0010801E04FF0000899
:10342000B9F1000F03D0B9F1010F49D121E0B8F192
:10343000000F17D128A060616668284800683060D6
:103440002648066000202070254800686060002043
:103450002081234804605046FCF794FF0020287028
:10346000002705E05046FCF78DFF492028702746CD
:103470002DE005E0022304220021204600F0A0FFF9
:10348000A07A0028F6D114A060616668134800682D
:1034900030601248066000202070114800686060AB
:1034A000002020810E4804605046FCF76BFFB8F105
:1034B000010F01D101F0CCF900202870002706E0AF
:1034C0005046FCF75FFF07202870274600BF00BF6B
:1034D000384692E7450100203F0000006C010020C3
:1034E000300100202DE9F0470746884615464FF089
:1034F00000093878022804D0012028700020BDE897
:10350000F0873E48007818B1022028700020F6E7C6
:103510003B48007818B10D2028700020EFE7FCF739
:103520002DFF81467C68E08A98B12169081D2061E1
:103530000E68E08A401EE082A1682069884201D1BD
:10354000606820614846FCF71DFF00202870304667
:10355000D5E72C48006890F8340040F00400294971
:10356000096881F8340000202649096881F835008F
:1035700024480068C0F83080384600F09DFF484677
:10358000FCF700FF01F064F9FCF7F8FE81461D48E6
:10359000006890F8350020B101280DD002280AD12A
:1035A00005E018480068466A002028700DE00026F3
:1035B0000E20287009E000BF39461248006800F06C
:1035C00047FF00260A20287000BF00BF00200D49D9
:1035D000096881F834000B49096881F83500094908
:1035E0000968C861074909680862064909684862AC
:1035F0004846FCF7C7FE304681E700004501002041
:1036000046010020580100202DE9F04105460E46F4
:1036100000272878022802D00120BDE8F081FCF7BD
:10362000ADFE0746A87A60B1002304223146284641
:1036300000F0C6FE3846FCF7A5FE01F009F90020AF
:10364000EBE76C68E08AA18A884204DB3846FCF725
:1036500099FE1E20E1E7E168081DE0600E60E08A47
:10366000401CE082D4E90210884201D16068E06029
:103670003846FCF787FE0020CFE72DE9F0470546E6
:103680000C464FF0000A2878022802D00120BDE83D
:10369000F087FCF773FE8246A87A207405F10B08C8
:1036A00004F10809002705E018F8010B09F8010BDF
:1036B000781CC7B2082FF7D36E68F08A18B130694A
:1036C0000068206001E000202060F08AA080B08ABD
:1036D000E0805046FCF756FE0020D8E710B50024E5
:1036E0000B480078012811D1FCF748FE0446094830
:1036F000007840B908480078FF2804D206480078CE
:10370000401C054908702046FCF73CFE10BD000037
:1037100052010020450100204601002010B5002480
:1037200013480078012821D1FCF728FE04461148EF
:103730000078C0B91048007888B10F480078401E62
:103740000D4908700846007828B92046FCF71AFE93
:1037500001F07EF80AE02046FCF714FE06E0204661
:10376000FCF710FE02E02046FCF70CFE10BD000046
:1037700052010020450100204601002070B5054699
:1037800000261048007808B1002070BDFCF7F6FD57
:1037900006460D480468006820B10B480068406880
:1037A000094908603046FCF7EDFD4CB1032020705C
:1037B00025810020606005A06061204600F0BAFE0F
:1037C0002046E2E745010020300100203F000000D4
:1037D0002DE9F0470446884615464FF00009207849
:1037E000032804D0012028702046BDE8F0872D482A
:1037F000007818B10F2028702046F6E7FCF7BEFDD0
:103800008146A07A08B1012700E00027B8F1000F37
:1038100003D0B8F1010F3AD119E08FB922A060614D
:1038200000202070214800686060002020811F482F
:1038300004604846FCF7A6FD00202870002605E03D
:103840004846FCF79FFD49202870264626E005E003
:10385000022301220021204600F0B2FDA07A0028B8
:10386000F6D111A0606100202070104800686060EF
:10387000002020810D4804604846FCF783FD012F9D
:1038800001D100F0E5FF00202870002606E0484640
:10389000FCF778FD07202870264600BF00BF3046A1
:1038A000A3E70000450100203F0000003001002098
:1038B0002DE9F04105460E461446002728780328D6
:1038C00003D001202070BDE8F0813248007810B1AB
:1038D00002202070F7E73048007810B10D202070EA
:1038E000F1E7FCF74BFD0746288940B12889401EC7
:1038F00028813846FCF746FD00202070E3E7274882
:10390000006890F8340040F001002449096881F80B
:10391000340000202149096881F835001F480068FB
:103920000663284600F0C8FD3846FCF72BFD00F082
:103930008FFFFCF723FD07461848006890F8350014
:1039400020B1012809D0022806D102E00020207011
:103950000BE00E20207008E000BF29460F480068E9
:1039600000F076FD0A20207000BF00BF00200B4948
:10397000096881F834000949096881F83500074968
:103980000968C8610549096808623846FCF7FAFC0D
:1039900000BF98E7450100204601002058010020A3
:1039A00070B5044600252078032801D0012070BDA1
:1039B000FCF7E4FC0546A07A60B100230122194619
:1039C000204600F0FDFC2846FCF7DCFC00F040FF40
:1039D0000020ECE720894FF6FF71884207D220894A
:1039E000401C20812846FCF7CDFC0020DFE728465C
:1039F000FCF7C8FC3320DAE72DE9F04704460D4612
:103A00004FF000092078032802D00120BDE8F0879C
:103A1000FCF7B4FC8146A07AA87204F10B0705F10B
:103A20000208002605E017F8010B08F8010B701CCE
:103A3000C6B2082EF7D3208928804846FCF7A2FC9E
:103A40000020E3E710B50B48007890B900F03AFF8A
:103A5000094800780949087009480749097850F869
:103A60002100084908600846006807490860FCF71B
:103A70008CFC10BD520100204801002047010020AD
:103A800014C30120600100205801002010B500245B
:103A9000022000F09FFBFCF771FC044600200B495C
:103AA00008602046FCF76EFC642000F093FBFCF7F6
:103AB00065FC044605480068054908600120054981
:103AC00008702046FCF75EFC10BD00005401002089
:103AD0003C0100204401002010B504462046FCF7BC
:103AE000E2FF10BD2DE9FE4F06460F4690461C46EC
:103AF0004FF00009FCF742FC81461F48007828B1CE
:103B00004846FCF73FFC3C20BDE8FE8F1B4850F8C0
:103B1000240060BB0120194941F824004846FCF705
:103B200031FC002342463946304600F0CDF982464A
:103B30000020009001900346024651460290204624
:103B400000F0D6FE054635B90D48007801280CD1A5
:103B500000F07EFE09E0FCF711FC814600200749D9
:103B600041F824004846FCF70DFC2846CCE74846BF
:103B7000FCF708FC2820C7E74501002014C30120FA
:103B8000520100202DE9F04F85B081468A469346C8
:103B90001C46DDE90F78129D00200390FCF7EEFB38
:103BA00003902348007830B10398FCF7EBFB3C20EE
:103BB00005B0BDE8F08F1F4850F8240088BB0120F5
:103BC0001C4941F824000398FCF7DCFB2A464146D7
:103BD000384600F0BBFF2B465A465146484600F097
:103BE00073F904901198CDE9008002953A46204679
:103BF0000E9B049900F07CFE064636B90E4800780C
:103C000001280CD100F024FE09E0FCF7B7FB03907B
:103C10000020084941F824000398FCF7B3FB304624
:103C2000C6E7FFE70398FCF7ADFB2820C0E70000DC
:103C30004501002014C301205201002010B50446A4
:103C40002046FCF731FF10BD2DE9F0410546002765
:103C50004A48007810B14020BDE8F0813F2D01D1E5
:103C60003E20F9E7FCF78AFB0746FF2D03D14448C5
:103C7000006890F83650434850F8254024B938463B
:103C8000FCF780FB4320E7E7012C04D13846FCF722
:103C900079FB3D20E0E714F8380F3B49085C617878
:103CA00088432178384A505414F838091146085C82
:103CB00030B994F83A103548007888433349087091
:103CC000E06918B12046E16900F0C2FB206A18B132
:103CD0002046216A00F0D3FBA66A16B1304600F0F8
:103CE00063FC0020206384F8340084F83500284801
:103CF0000078FF2804D226480078401C2449087028
:103D00003846FCF73FFB00F059FBFCF737FB074652
:103D10001F48007820B11E480078401E1C490870DA
:103D2000204600F041F81B480078401E19490870F1
:103D30000020144941F82500A06930B900206169CC
:103D4000886115496069086005E0D4E905014861AA
:103D5000D4E9051088611148006860610F4804606B
:103D60000FA020653846FCF70DFB0E4800780128AF
:103D700001D100F06DFD00206EE70000450100203C
:103D80005801002014C301204A01002049010020ED
:103D90004601002053010020640100205C01002046
:103DA0003F0000005201002010B504462046FCF7F9
:103DB0007CFE10BD10B5FCF779FE10BD2DE9F04179
:103DC00006460F4614464FF000081548007818B113
:103DD00012202070BDE8F081FCF7D0FA8046FF2E5B
:103DE00003D11048006890F836600F4850F826500C
:103DF0002DB94046FCF7C6FA43202070EAE7012DB2
:103E000005D14046FCF7BEFA43202070E2E72F655B
:103E10004046FCF7B7FA0020207000BFDAE7000048
:103E2000450100205801002014C3012010B50446AC
:103E30002046FCF73CFE10BD10B5FCF739FE10BD66
:103E40002DE9F04707460D464FF0000A0020286094
:103E50006860FCF793FA8246FF2F03D11848006888
:103E600090F83670174850F827402CB95046FCF7A8
:103E700089FA4320BDE8F087012C04D15046FCF7B5
:103E800081FA4320F6E7207C00F0010020B950467B
:103E9000FCF778FA4520EDE70026D4F80C90D4F82A
:103EA00008805046FCF76EFA00E0761C58F8041BB8
:103EB0000029FAD02E60A9EB060068600020D9E73F
:103EC0005801002014C3012070B50446101D20F0D5
:103ED00007004FF08076051F28462E60051F2846F4
:103EE0002C60684E051F28462E604FF01236051FC5
:103EF00028462E604FF00336051F28462E604FF0EF
:103F00000236051F28462E607610051F28462E60B3
:103F1000051F284629604FF01136051F28462E60E0
:103F20004FF01036051F28462E604FF00936051F4A
:103F300028462E604FF00836051F28462E604FF0A9
:103F40000736051F28462E604FF00636051F284607
:103F50002E604FF00536051F28462E604FF00436C0
:103F6000051F28462E6003F00405002D7ED0F605BF
:103F7000051F28462E60444E051F28462E60434EDE
:103F8000051F28462E60424E051F28462E60414ED2
:103F9000051F28462E60404E051F28462E603F4EC6
:103FA000051F28462E603E4E051F28462E603D4EBA
:103FB000051F28462E603C4E051F28462E603B4EAE
:103FC000051F28462E603A4E051F28462E60394EA2
:103FD000051F28462E60384E051F28462E60374E96
:103FE000051F28462E60364E051F28462E604FF0CE
:103FF0008346051F28462E60324E051F28462E6038
:10400000314E051F28462E60304E051F28462E6073
:104010002F4E051F28462E602E4E051F28462E6067
:104020002D4E051F28462E602C4E051F28462E605B
:104030004FF08246051F28462E60294E051F284650
:104040002E60284E051F28462E60274E051F284645
:104050002E604FF08146051F28462E60234E051F17
:1040600028462E603602051F284600E009E02E6033
:104070004FF07E56051F28462E600026051F284655
:104080002E6070BD594A00080000F8410000F04160
:104090000000E8410000E0410000D8410000D041AC
:1040A0000000C8410000C0410000B8410000B0411C
:1040B0000000A8410000A04100009841000090418C
:1040C0000000884100007041000060410000504144
:1040D000000040410000304100002041000010413C
:1040E0000000E0400000C0400000A0400000404050
:1040F0002DE9F04105464FF00008FCF73FF98046F6
:10410000FF2D05D12048006890F83650012608E0C0
:104110001D48006890F83600A84201D1012600E051
:1041200000261A4850F825402CB94046FCF72AF9D9
:104130004820BDE8F081012C04D14046FCF722F96B
:104140004320F6E794F838701148C05D94F83910B0
:1041500088430F49C8550846C05D30B994F83A10F5
:104160000C48007888430B49087094F8340040F0FC
:10417000080084F834004046FCF704F9012E01D110
:1041800000F066FB0020D4E75801002014C3012092
:104190004A0100204901002010B50C480068007C4D
:1041A00000F0040020B1094909680868FCF7D0F85C
:1041B00007480068007C00F0040020B10449096849
:1041C0000868FCF7D2F8FCF774FC10BD5801002019
:1041D0006001002070B5054600261748007800B140
:1041E00070BD1648007800B1FAE71DB3FCF7C6F8B9
:1041F00006461348006890F838401248005D1049A0
:10420000096891F8391088430E4908550846005D41
:1042100040B90B48006890F83A100B480078884382
:10422000094908700648006805633046FCF7AAF89B
:1042300000F00EFB00BFD3E745010020460100203F
:10424000580100204A010020490100202DE9F041D9
:1042500005460E4617461C461248007810B15520F8
:10426000BDE8F0811048007808B13220F8E74FF43B
:104270007A7060434FF47A71B0FBF1F14FF46160F2
:104280006843C6EB061200EB8200384400EB4002A4
:10429000C2EBC01001EBC0084046FFF79BFF0020B7
:1042A000DEE70000450100204601002070B5002532
:1042B000FCF764F80546034804682846FCF762F8F2
:1042C000204670BD7401002070B5002600F072F821
:1042D000FCF754F8064631480068401C2F49086036
:1042E0003046FCF74FF82E480078012853D12D486E
:1042F000007820B1012804D0022809D103E001256B
:104300000BE0002509E0012501202649087004E0A2
:10431000012500202349087000BF00BF05B970BD0A
:104320002148046833E0FCF729F80646206B50B3B7
:10433000206B401E2063206B28BB94F8340000F0F3
:10434000370040B114F8340F00F0C800207001208D
:104350006070343C02E0002084F8350094F83400AA
:1043600000F0080078B93834A0781049097808437B
:104370000E49087020780E49085C6178084314F8EB
:1043800038190B4A505464693046FBF7FBFF94F828
:1043900036003F28C7D100BFC1E7000074010020EC
:1043A0005201002068010020640100204901002022
:1043B0004A01002010B5FCF77DFB10BD70470000DE
:1043C0002DE9F04F05460F4690469946A87A1C49BC
:1043D0000E5C05F10B00805D11F800B00BEBC60020
:1043E00000F0FF0A174850F82A4000202434E0600B
:1043F0002760207C20EA0800207484F81190207C3B
:10440000243C00F0080068B994F83A000E49097895
:1044100008430D4908700D48805D94F83910084331
:104420000A4988552946204600F012F8206A20B132
:104430002046216A00F023F8E5615046BDE8F08F80
:10444000B4C9000814C30120490100204A0100201A
:1044500010B590F8382001F10B039B5C90F83940BF
:10446000A34301F10B04A35423469B5C23B98B7A2D
:1044700090F83A40A3438B720023C36110BDF0B59E
:10448000024612F8384F95785678383A0B46186835
:104490000FE000F10B073F5DB74300F10B0C0CF888
:1044A000047067463F5D17B9877AAF4387721B1D5B
:1044B00018680028EDD1F0BD10B51B4A1268D06114
:1044C000194A126892F8383000F10B02D25C164B90
:1044D0001B6893F839301A43134B1B6893F8384024
:1044E00000F10B031A55827A0F4B1B6893F83A3090
:1044F0001A4382720C4A126892F838100B4A525CC6
:10450000094B1B6893F839309A43084B5A541A46A2
:10451000525C42B9044A126892F83A30044A12785E
:104520009A43034B1A7010BD580100204A01002025
:1045300049010020014600228A72002005E0002384
:1045400001F10B021354421CD0B20828F7D3704774
:104550002DE9F0415021114800F048F900250DE007
:10456000681C86B20D4800EB051400EB061700200E
:10457000207067600AA0E060681C85B2042DEFD34C
:10458000064800EB051400202070606004A0E06085
:10459000024804490860BDE8F0810000C4BE012063
:1045A0003F0000003401002030B501464A68086829
:1045B0002AB9CC68606028B10025456002E010602F
:1045C00000B142608B6800259D6230BD70B54FF42C
:1045D000F071134800F00AF9002411E0601C85B264
:1045E00004EB44000E4901EBC00305EB450001EB71
:1045F000C006002018705E600AA05861601C84B27A
:10460000132CEBD304EB4400054901EBC00300205D
:104610001870586003A0586108460349086070BDCF
:10462000E4BC01203F0000003001002000200B49C5
:1046300008600B4908700B4908700B4908700B495A
:1046400008700B4908600B4908600B4908600B496A
:1046500008600B4908700B4908707047740100200E
:104660004501002046010020530100205201002096
:104670002C01002054010020400100203C010020BA
:10468000440100207001002000210A4A117000201E
:1046900004E00021084A1154411CC8B20828F8D38C
:1046A0000021064A1170064A1170064A1160064A36
:1046B00011607047490100204A0100204701002095
:1046C00048010020600100205801002070B54FF41F
:1046D000F261194800F08AF84FF48071174800F031
:1046E00085F8002413E0601CC5B204EB440000EB25
:1046F000C400114901EBC00305EB450000EBC50008
:1047000001EBC0065E610EA01865601CC4B2152CDA
:10471000E9D304EB440000EBC400074901EBC003FC
:104720000020586106A0186500200649086002486C
:104730000549086070BD000014C4012014C30120A5
:104740003F000000640100205C01002000B587B03C
:104750000320002180220A4BCDE90132CDE903106C
:104760004FF6FF703F23074A00900748FFF70AFA09
:1047700006AA06A13F20FFF721FB07B000BD0000FD
:1047800014C1012010C30120314A000875432F4F86
:10479000532D49492049646C6500000000B587B07D
:1047A0000320002180220A4BCDE90132CDE903101C
:1047B0004FF6FE703E23074A00900748FFF7E2F9E4
:1047C00006AA06A13E20FFF7F9FA07B000BD0000D7
:1047D00014BF012010C10120714A000875432F4FFA
:1047E000532D4949205374617400000004E00022F5
:1047F00000F8012B4A1E91B20029F8D17047000041
:104800002DE9F04160211048FFF7F0FF00240DE092
:10481000601C86B204EB44000B4901EBC00506EBBB
:10482000460001EBC0072F60601C84B2032CEFD35D
:1048300004EB4400044901EBC00500202860084651
:1048400002490860BDE8F081A4CB01206C01002082
:1048500010B50024FBF792FD044613480078F8B920
:1048600012480078E0B900F02DF811481149097894
:1048700050F82100104908600E4800780F49097867
:1048800088420DD00C480068C06B401C0A4909687A
:10489000C8630B480068401C09490860FBF789FDA4
:1048A0002046FBF76FFD10BD4501002046010020AA
:1048B00014C30120480100206001002047010020AE
:1048C0002C0100200649074A1278885C0649095CD9
:1048D000034A515C01EBC001044A117070470000AB
:1048E000B4C90008490100204A0100204801002005
:1048F0002DE9F84F05460F4690469946DDE90AAB8B
:1049000000200090FBF73AFD009042480468002C1C
:104910007BD01C3454F8080C3E4908600098FBF723
:1049200031FD44F81C7CA57600202076607660611D
:1049300044F818BC44F810AC44F8148C0C9824F8D3
:104940000C0C24F80A9C0020E077E810207705F092
:104950000700E076217F01208840A077E17E0120DA
:1049600088406077002020606060E060A060206286
:10497000A0626062E062206327A060631C3C0026A6
:1049800006E0002104F1540040F82610701CC6B265
:10499000002EF6D02046FFF79FF8FBF7EFFC0090C3
:1049A0001E4840F825400098FBF7ECFC2046FFF736
:1049B00045F9FBF7E3FC00901948006860610020AE
:1049C000A0611748006810B1154800688461144858
:1049D00004603834A07813490978084311490870F5
:1049E00020781149085C6178084314F838190E4A98
:1049F00050540E480078401C0C4908700098FBF792
:104A0000C1FC0020BDE8F88FFFE70098FBF7BAFC77
:104A10004220F7E75C0100203F00000014C30120A2
:104A200064010020490100204A01002053010020B8
:104A3000002400BF00BFFBF7A1FC04460548006846
:104A4000401C044908602046FBF79CFCFFF7B2F9C4
:104A5000F1E700005401002010B504480068FFF79A
:104A6000E5F9FF20FFF7F0F810BD00005801002025
:104A700000BF00BF02E0C820FFF7ACFB1F48007872
:104A80000028F8D01E4800686421B0FBF1F01C49F2
:104A900008600846006828B900201A490870FF20FD
:104AA000FFF726FBFBF76AFC044615480068642103
:104AB0004843154908602046FBF764FC00BFFBF73C
:104AC0005DFC0446104800681049086000200E494B
:104AD00008602046FBF756FC0C4800680849096846
:104AE000B0FBF1F0C0F1640006490870FFF7A4F9CB
:104AF00000F00EF86420FFF76DFBE0E744010020B2
:104B00003C01002038010020540100204001002019
:104B10007CB5002514E069462846FFF791F9064662
:104B200066B9094850F8254044B1012C06D0D4E9B3
:104B3000020100EB8100A0640198E064681CC5B22A
:104B40003F2DE8D97CBD000014C3012002F0010311
:104B500043B102F002032BB102E0491E002308C05A
:104B60000029FAD17047000010B586B0002400BFBC
:104B7000002000901548006840F0020013490860CA
:104B80000846006800F00200009000BF00BF8814D3
:104B9000019000200290012003900320049001A9BD
:104BA0000B48FCF7C1FEFEF787F8FEF745F94020F9
:104BB000FEF70EF9FEF78CF90446FEF763F9FF20C5
:104BC00000F02CF8204606B010BD0000303802403E
:104BD0000004024010B50024FEF72EF94120FEF734
:104BE000F7F8FEF775F90020FEF7BCF80446FEF76B
:104BF00049F9204610BD70B504460E46FFF7EAFF9E
:104C000005461EB90120A040854303E00120A040D5
:104C10002843C5B2284600F001F870BD10B504461F
:104C2000FEF70AF94020FEF7D3F8FEF751F92046C7
:104C3000FEF7CEF8FEF74CF9FEF724F90A2000F053
:104C40004DFB10BD10B588B00024274827490860E7
:104C5000002048600121254881600821C1601021A1
:104C60000161402141614FF4C07181610021C16146
:104C70004FF40061016249004162490081620220F3
:104C800001900820029006200390049002200590D5
:104C90000690079001A91548FDF74CFC002301225E
:104CA0001146184600F024F84FF4FA7000F04CFB5F
:104CB000002301220221184600F01AF800230822DE
:104CC0000321184600F014F84FF40C742346012217
:104CD0000421002000F00CF840F2AB210348FDF75E
:104CE000E3FC08B010BD0000400100A0D01100207E
:104CF0002DE9FF4104460D4616461F464FF00008B9
:104D000014B94FF0100803E0012C01D14FF008084E
:104D10000095CDF80480029603974FF480526946BF
:104D20000448FDF7D5FC18B9002004B0BDE8F081B7
:104D30000120FAE7D0110020704700002DE9F04172
:104D400092B00546884616461F46002400BF002044
:104D500000902648006840F08050244908600846CA
:104D6000006800F08050009000BF00BF00BF00202E
:104D700000901F48006840F440401D490860084604
:104D8000006800F44040009000BF00BF0120069082
:104D9000079002200C9041050D91CDF838800F95B9
:104DA0001096119706A8FDF7C1F904460CB100BF93
:104DB000FEE7FCF76FFF04460CB100BFFEE70F20D3
:104DC000019002200290002003904FF4A050049024
:104DD0004FF480500590052101A8FCF7ADFF044673
:104DE0000CB100BFFEE712B0BDE8F08140380240D0
:104DF0000070004010B5FCF7B1FE054800780128AE
:104E000005D1FEF743FAFFF75FFAFEF751FA10BD3E
:104E1000520100201448006840F4700012490860F4
:104E20001248006840F001001049086000200F4956
:104E3000083108600D4800680D4908400B490860BA
:104E40000C48091D0860081F006820F48020091F15
:104E50000860002005490C3108604FF000600249ED
:104E6000803908607047000088ED00E0003802409B
:104E7000FFFFF6FE1030002410B50248FDF776FC67
:104E800010BD00004C12002010B504462068C06818
:104E900020F040002168C86094F83900322803D11E
:104EA000222084F8390002E0012084F839002046ED
:104EB000FDF7D6FE002010BD70B50446002694F81C
:104EC0003960222E01D0322E52D1A068B0F5805F19
:104ED00013D1A56A206940B920684068C0F3080072
:104EE0002880A06A801CA06219E020684068C0B2D7
:104EF0002880A06A401CA06211E0206938B92068AF
:104F00004068C1B2A26A501CA062117007E020681C
:104F1000406800F07F01A26A501CA0621170E08D11
:104F2000401E80B2E08508BB2068C06820F02000E9
:104F30002168C86094F83900322803D1122084F81F
:104F400039000EE02068C06820F480702168C860D5
:104F50002068406920F0010021684861012084F840
:104F600039002046FDF738FE002070BD0020FCE728
:104F70000220FAE72DE9F041044600252068056982
:104F800025F44055E0680543206805612068C56840
:104F900049F20C6085432169A068084361690843B0
:104FA000E169084305432068C5602068456925F428
:104FB0004075A069054320684561E069B0F5004F80
:104FC00072D173492068884203D0724920688842B0
:104FD00034D1FDF73BF800EBC00101EB0010616834
:104FE0004900B0FBF1F06421B0FBF1F6FDF72EF8BB
:104FF00000EBC00101EB001061684900B0FBF1F764
:10500000FDF724F800EBC00101EB001061684900D6
:10501000B0FBF1F06421B0FBF1F000EBC00101EB5B
:105020000010A7EB8000322101EB00106421B0FBDF
:10503000F1F066F31F1021688860A6E0FCF7F0FF2E
:1050400000EBC00101EB001061684900B0FBF1F01A
:105050006421B0FBF1F6FCF7E3FF00EBC00101EBCC
:10506000001061684900B0FBF1F7FCF7D9FF00EBD5
:10507000C00101EB001061684900B0FBF1F0642150
:10508000B0FBF1F000EBC00101EB0010A7EB8000DA
:10509000322101EB00106421B0FBF1F066F31F1028
:1050A0002168886071E0FFE739492068884203D0B1
:1050B00038492068884234D1FCF7C8FF00EBC001B2
:1050C00001EB001061688900B0FBF1F06421B0FBD6
:1050D000F1F6FCF7BBFF00EBC00101EB00106168CB
:1050E0008900B0FBF1F7FCF7B1FF00EBC00101EB69
:1050F000001061688900B0FBF1F06421B0FBF1F0B1
:1051000000EBC00101EB0010A7EB8000322101EBA6
:1051100000106421B0FBF1F066F31F102168886075
:1051200033E0FCF77DFF00EBC00101EB001061688C
:105130008900B0FBF1F06421B0FBF1F6FCF770FFE1
:1051400000EBC00101EB001061688900B0FBF1F7D2
:10515000FCF766FF00EBC00101EB001061688900FD
:10516000B0FBF1F06421B0FBF1F000EBC00101EB0A
:105170000010A7EB8000322101EB00106421B0FB8E
:10518000F1F066F31F1021688860BDE8F08100002F
:10519000001001400014014010B50146002391F8B1
:1051A0003930122B01D0322B2CD18868B0F5805FBA
:1051B0000FD10A6A1088C0F308000C6860600869A3
:1051C00018B9086A801C086209E0086A401C086275
:1051D00005E00C6A601C086220780C686060C88C6E
:1051E000401E80B2C88458B90868C06820F08000AA
:1051F0000C68E0600868C06840F040000C68E0603F
:10520000002010BD0220FCE770B50024114DFEF710
:105210003DF81148FDF77EFB00BF03E0641CAC4283
:1052200000D904E00C48FDF771FB0128F6D100BF5E
:10523000002403E0641CAC4200D906E001220749C7
:105240000548FDF785FC0028F4D100BFFEF730F8D3
:1052500070BD0000FFFF0100901100204E000020F3
:1052600000BFFEE730380A2801D201207047002035
:10527000704700BF7047000010B5044600BF00BF74
:1052800001F0E6F80022034941F2883006F09AFC6A
:1052900010BD00007952000870B504460420FDF7E7
:1052A00034FA0C48046025464FF47A7045430120D7
:1052B000094908804FF0E020006940F002004FF0FB
:1052C000E021086108464561006940F0010008617D
:1052D00070BD0000400000204400002070B504466E
:1052E0000F480078A0B10F48007888B90E480088B0
:1052F000844206DB0C48008894FBF0F5284600F059
:105300001DF80948008894FBF0F100FB114084B2BD
:105310004FF47A7104FB01F000F016F870BD000044
:1053200052010020450100204400002010B5FEF786
:10533000D5F910BD10B5FEF7F1F910BD10B5044652
:105340002046FEF747FF10BD2DE9F047074600262F
:105350004FF0E020D0F814901048006807FB00F8E8
:10536000FFF7E4FF4FF0E020856911E04FF0E02007
:105370008469AC420CD0AC4202D2281B064403E044
:10538000A9EB0400284406442546464500D300E026
:10539000ECE700BFFFF7CEFFBDE8F087400000203C
:1053A00010B50446206890F9080010F1090F03DADF
:1053B0002068007A20711DE0FA2020712068406882
:1053C000C0B12068007800F0F000202808D0402804
:1053D0000ED12268A168506805F03AFF207108E0FC
:1053E000A2892368A168586806F0A0FE207100E039
:1053F00000BF00BF216801F10C0006F0B6FB10BD34
:1054000010B504462068406810B9F420207127E0E8
:105410002068007800F0F000202808D040280ED145
:105420002268A168506805F01BFF207117E0A2896F
:105430002368A168586806F0FFFE20710FE000BFE6
:1054400000BF0AA340F2034212A118A0FAF7F0FF2E
:1054500000BF00BFFA20207100BF00BF00BF00BF27
:10546000216801F10C0006F080FB10BD2E2E5C4C73
:105470005749505C6C7769702D312E342E315C7336
:1054800072635C6170695C6170695F6D73672E63E4
:1054900000000000496E76616C6964206E6574637B
:1054A0006F6E6E2074797065000000004173736543
:1054B0007274696F6E2022257322206661696C65A3
:1054C00064206174206C696E6520256420696E20FB
:1054D00025730D0A0000000010B5044620684078CE
:1054E000002819D020684078022815D0206840781C
:1054F000032811D000BF20680078102808D000BF12
:105500002EA340F2473237A13EA0FAF791FF00BF29
:1055100000BFFB20207144E000BF206840780328D2
:105520000DD12068007F00F0040040B900BF23A324
:1055300040F24A323EA133A0FAF77AFF00BF00BF23
:10554000206804F09BF920684068D0B1206800789A
:1055500000F0F000202806D040280DD121684868CE
:1055600005F0DEFE09E00020216849680862216834
:10557000486807F001F800E000BF00BF0020216884
:1055800048602068006A20B1206800221146036A42
:1055900098472068006A20B1206800220221036A2F
:1055A0009847216801F10C0006F0E5FA20B1216866
:1055B00001F10C0006F0D9FA10BD00002E2E5C4C53
:1055C0005749505C6C7769702D312E342E315C73E5
:1055D00072635C6170695C6170695F6D73672E6393
:1055E000000000006D73672D3E636F6E6E2D3E747C
:1055F000797065203D3D204E4554434F4E4E5F54DB
:1056000043500000417373657274696F6E202225E8
:105610007322206661696C6564206174206C696E18
:105620006520256420696E2025730D0A00000000A6
:10563000626C6F636B696E6720636F6E6E65637417
:1056400020696E2070726F677265737300000000CE
:1056500010B50446002020712068406810B920462B
:1056600005F096FC216801F10C0006F07EFA10BDF1
:1056700070B50446206890F9080010F1090F03DAAC
:105680002068007A207140E0F32020712068406893
:1056900000283AD02068007800F0F000202819D0C7
:1056A000402830D1A068083010B1A068806838B9AF
:1056B000A26811682268506805F052FE207108E067
:1056C000A36803F1080219682368586805F052FEC0
:1056D000207119E0A068083010B1A068806838B95E
:1056E000A26811682268506806F066FF207109E020
:1056F000A568AB8905F1080229682568686806F085
:1057000065FF207100E000BF00BF216801F10C00BF
:1057100006F02BFA70BD00002DE9FC4705468846CF
:10572000164600BF55B900BF51A340F2BB225AA193
:105730005DA0FAF77DFE00BFBDE8FC8700BF708961
:105740002A2805DA00BF00BF304605F0A7F9F3E7C5
:10575000776807F10E042088B0F5807F08D12079A2
:10576000062805D16079042802D16088082805D070
:1057700000BF00BF304605F091F9DDE7D4F80E0018
:105780000190A0690090281D08B1686810B94FF019
:10579000000907E000986968884201D1012000E013
:1057A00000208146B9F1000F01D0012000E0022065
:1057B000034604F1080201A9284600F093FEE088A0
:1057C000B0F5807F03D0B0F5007F47D143E000BF44
:1057D00000BFB9F1000F35D000BF00BF022003F0B9
:1057E00069F8E080D4F80E00A0616868C4F80E0083
:1057F00000BF95F82200062808D000BF1CA340F285
:105800001132344928A0FAF713FE00BF00BFA06888
:10581000C4F81200A089E082A0683860A089B8802E
:10582000D8F80000A060B8F80400A081D8F8000003
:10583000C7F80600B8F80400788131462846AA69FE
:10584000904707E0281D08B1686808B900BF01E06B
:1058500000BF00BF05E000BF00BF02E000BF00BF07
:1058600000BF00BF304605F019F900BF64E7000033
:105870002E2E5C4C5749505C6C7769702D312E345C
:105880002E315C7372635C6E657469665C65746806
:105890006172702E630000006E6574696620213DA0
:1058A000204E554C4C000000417373657274696F53
:1058B0006E2022257322206661696C656420617404
:1058C000206C696E6520256420696E2025730D0AA1
:1058D00000000000F0CA00082DE9FE4F0646884689
:1058E0004FF00A09CA460A270024002002900190BE
:1058F000BB46009000BF6FE004EB8400764901EBEB
:105900008000857C0A2F04D11DB900BF00BF67B29B
:1059100060E0002D5ED000BF012D0AD0022D08DA14
:1059200000BF6EA340F22B1276A186A0FAF780FD8D
:1059300000BF00BF6EB104EB8401674A02EB810136
:1059400030684968884204D100BF00BF60B2BDE83A
:10595000FE8F012D2AD104EB84005F4951F820000D
:1059600088B104EB840001EB8000C17C0098814287
:1059700030DB4FFA84FB04EB8400574901EB8000D5
:10598000C07C009026E004EB8400534901EB8000CA
:10599000C17C029881421DDB4FFA84F904EB84003C
:1059A0004D4901EB8000C07C029013E0022D11DB19
:1059B00004EB8400484901EB8000C17C01988142DE
:1059C00008DB4FFA84FA04EB8400434901EB8000C2
:1059D000C07C0190601CC4B20A2C8DDB08F0020070
:1059E00020B90A2F07D108F0010020B900BF00BF7D
:1059F0004FF0FF30ABE70A2F02DAFCB200BF3AE00B
:105A0000BAF10A0F14DA0AF0FF0400BF00BF00BFAA
:105A100004EB8400304951F8200040B100BF2FA3AF
:105A200040F2711252A147A0FAF702FD00BF12E046
:105A3000B9F10A0F03DA09F0FF0400BF0BE0BBF174
:105A40000A0F03DA0BF0FF0400BF04E000BF00BF41
:105A50004FF0FF307BE700BF0A2C08DB00BF1FA31D
:105A600040F2831248A137A0FAF7E2FC00BF00BF62
:105A7000204600F0A9F800BF0A2C08DB00BF17A3DE
:105A800040F2871240A12FA0FAF7D2FC00BF00BF5E
:105A900000BF04EB8400104901EB8000807C40B122
:105AA00000BF0EA34FF4C4723CA126A0FAF7C0FCBD
:105AB00000BF00BF36B104EB8401074A02EB81014D
:105AC00030684860002004EB8401034A02EB810146
:105AD000C87460B23BE70000ECBB01202E2E5C4C8A
