:020000040800F2
:1000000068FE0120E9020008396E0008994B0008DB
:10001000856D0008FF0A0008919C000800000000A0
:10002000000000000000000000000000A58B000898
:10003000510F000800000000C7030008D194000819
:1000400023030008230300082303000823030008F8
:1000500023030008230300082303000823030008E8
:1000600023030008230300082303000823030008D8
:1000700023030008230300082303000823030008C8
:1000800023030008230300082303000823030008B8
:10009000910B000823030008230300082303000832
:1000A0002303000823030008230300082303000898
:1000B000A995000823030008230300082303000870
:1000C0002303000823030008230300082303000878
:1000D00023030008399C00082303000823030008B9
:1000E0002303000823030008230300082303000858
:1000F0002303000823030008230300082303000848
:100100002303000823030008230300082303000837
:100110002303000823030008230300082303000827
:100120002303000823030008230300082303000817
:1001300023030008DD0F0008230300082303000841
:1001400023030008230300082303000823030008F7
:1001500023030008230300082303000823030008E7
:1001600023030008230300082303000823030008D7
:1001700023030008230300082303000800000000F5
:1001800023030008230300082303000823030008B7
:1001900023030008230300082303000823030008A7
:1001A00023030008230300082303000800F002F8DB
:1001B00000F069F80AA090E8000C82448344AAF198
:1001C0000107DA4501D100F05EF8AFF2090EBAE896
:1001D0000F0013F0010F18BFFB1A43F0010318477B
:1001E000180E0100380E01000A444FF0000C10F800
:1001F000013B13F0070408BF10F8014B1D1108BFA5
:1002000010F8015B641E05D010F8016B641E01F844
:10021000016BF9D113F0080F1EBF10F8014BAD1C94
:100220000C1B09D16D1E58BF01F801CBFAD505E0B2
:1002300014F8016B01F8016B6D1EF9D59142D6D30C
:10024000704700000023002400250026103A28BF34
:1002500078C1FBD8520728BF30C148BF0B60704738
:10026000642900F04181782900F07A81732900F037
:10027000AA83002070471FB510F074FD00F04DFAFE
:100280001FBD10B510BD00F007FC1146FFF7F3FFCE
:100290000DF0C0FB00F025FC03B4FFF7F2FF03BC38
:1002A00009F004FD30BF72B6704762B6704780F344
:1002B000088870470B49D1F800C04A685CF8043BD5
:1002C0001068184442F8040B8C4528BFA1F1DC0CDF
:1002D0008A4228BFA1F1DC02C1F800C04A6020F0C8
:1002E0000040704700F2012011488047DFF84400C9
:1002F000016841F470010160BFF34F8FDFF83800EF
:10030000016821F040410160BFF36F8F0B48004747
:10031000FEE7FEE7FEE7FEE7FEE7FEE7FEE7FEE7B5
:10032000FEE7FEE706480749074A084B704700000A
:10033000F194000888ED00E034EF00E0AD01000822
:1003400068F2012068FE012068F6012068F60120AD
:10035000EFF3098141B1F1EE101A40F8041D20EDD0
:10036000200A29490A6810607047B0EC200A02C8C8
:10037000E1EE101A25490A6810607047EFF310800B
:1003800072B6704780F31088704721484FF0FF0124
:100390000170002080F309881E48016881F30888F5
:1003A0001D48012101701D484FF08051016062B667
:1003B000FEE71A484FF080510160704717484FF030
:1003C00080510160704772B6EFF3098028B1203880
:1003D00080E8F00F0C490968086000B510488047B4
:1003E0005DF804EB0F4810490A7802700648074987
:1003F0000A680260106890E8F00F203080F30988E6
:100400004EF0F40E62B67047B8010020C001002023
:1004100022ED00E0D8010020B201002004ED00E050
:10042000097C0008A7010020A801002070470000F7
:100430000FB4044910B503AA029800F0C9FA10BC21
:100440005DF814FB4800002070B50446856900681B
:10045000C10601D5302600E02026C00707D070BDB8
:10046000D4E9012130469047206A401C20626D1E6D
:10047000F6D570BD70B5044685690078C00707D110
:1004800070BDD4E9012120209047206A401C2062E1
:100490006D1EF6D570BD70B50C460546012A05D017
:1004A0002878800600D5EA69002302E0012305E0F0
:1004B0005B1C934202D2E05C0028F9D1A869E618DF
:1004C000C01AA861286A184428622846FFF7BCFFB2
:1004D00004E0D5E9012114F8010B9047B442F8D3A8
:1004E0002846FFF7C7FF70BD2DE9F04106460024FE
:1004F00010687529314616A510D0AFF3008000288A
:1005000002DA404213A507E031688A0701D512A537
:1005100002E0490704D511A5012401E0AFF30080F2
:1005200000210A2206F1240709E0B0FBF2FCB0FB2F
:10053000F2F302FB1C00303078541846491C0028A6
:10054000F3D123462A463046BDE8F04100F0D0B949
:10055000000000002D0000002B0000002000000023
:1005600070B504460D4621461068AFF3008021881F
:10057000090502D50F4A7A4402E00E4A7A440E3247
:10058000002104F1240305E000F00F060009965D48
:100590005E54491C0028F7D120780023000704D5B9
:1005A000702D02D009B1022311322046BDE87040FF
:1005B00000F09EB9720901002DE9F05F89460446FA
:1005C0004FF0000ADFF824B1FB44C0F820A0204619
:1005D000E168884700287DD0252806D0D4E901218C
:1005E0009047206A401C2062F1E700255F462046C4
:1005F000E16888472028064607DB312E05D2B81966
:1006000010F8200C08B10543F1E7A80701D525F043
:100610000405C4F81CA00027C4F818A02A2E09D08D
:10062000304609F03CFB38B304EB8708303EC8F88D
:10063000186019E059F8041B204604EB8702916109
:10064000E1688847012F064618D1E069002820DAC2
:1006500025F020051DE0D8F8180000EB800006EB1F
:1006600040003038C8F818002046E1688847064640
:1006700009F015FB0028EED1012F0AD02E2E08D14B
:100680002046E16888477F1C0646022F45F020057A
:10069000C4DBA069002803DA404245F00105A061EF
:1006A000E80701D025F01005A6B1A6F141001928F0
:1006B00002D8203645F400654A463146204625607A
:1006C0004D46FFF7CDFD60B1012807D0ED1D25F0A7
:1006D000070000E007E000F1080978E705F10409E8
:1006E00075E730467AE7206ABDE8F09F48090100C7
:1006F0000B4910B5A1F17C020A4CC2E9371237212F
:1007000006E000EB104342F82130074B00FB0340AA
:100710000B1EA1F10101F4DC10BD0120E8E700008F
:10072000A0F10120E119D666CD0D010040EA0103D8
:1007300010B59B070FD1042A0DD310C808C9121F8A
:100740009C42F8D020BA19BA884201D9012010BDC4
:100750004FF0FF3010BD1AB1D30703D0521C07E091
:10076000002010BD10F8013B11F8014B1B1B07D1F5
:1007700010F8013B11F8014B1B1B01D1921EF1D166
:10078000184610BD40EA0103024630B59B0710D160
:100790004FF0013400E008C208C91D1B9D4315EA53
:1007A000C41FF8D013F0FF0102F8011B0DD01B0A83
:1007B000F8E711F8013B002B02F8013B05D011F8D6
:1007C000013B002B02F8013BF3D130BD032A40F27C
:1007D000308010F0030C00F0158011F8013BBCF1E3
:1007E000020F624498BF11F801CB00F8013B38BFFB
:1007F00011F8013BA2F1040298BF00F801CB38BF09
:1008000000F8013B11F0030300F0F480083AC0F057
:10081000088051F8043B083A51F804CBA0E80810CE
:10082000F5E7121D5CBF51F8043B40F8043BAFF301
:100830000080D20724BF11F8013B11F801CB48BF5B
:1008400011F8012B24BF00F8013B00F801CB48BF91
:1008500000F8012B70474FF000020429C0F012800D
:1008600010F0030C00F01B80CCF1040CBCF1020F63
:1008700018BF00F8012BA8BF20F8022BA1EB0C0138
:1008800000F00DB85FEAC17C24BF00F8012B00F82E
:10089000012B48BF00F8012B70474FF0000200B554
:1008A000134694469646203922BFA0E80C50A0E893
:1008B0000C50B1F12001BFF4F7AF090728BFA0E841
:1008C0000C5048BF0CC05DF804EB890028BF40F80D
:1008D000042B08BF704748BF20F8022B11F0804F4F
:1008E00018BF00F8012B704770477047704770477A
:1008F0002DE9F0470D4699469246044600F124083A
:100900000168880604D5E06921F01001216000E04B
:100910000120A84201DD471B00E00027A1697A19E8
:1009200002EB0900081AA0612078C00602D4204614
:10093000FFF78AFD002608E0D4E901211AF8060035
:100940009047206A401C761C20624E45F4DB2078DC
:10095000C0060AD52046FFF777FD06E0D4E901215D
:1009600030209047206A401C2062381EA7F1010702
:10097000F4DC07E0D4E9012118F805009047206A6B
:10098000401C2062281EA5F10105F3DC2046FFF77C
:1009900071FD2078000602D50220BDE8F087012015
:1009A000FBE710B5436913B1AFF3008001E0FFF737
:1009B00072FD012010BD127800F124010A7000229E
:1009C0004A700122EDE711684FF0FF32E9E70000BD
:1009D000074B70B50D467B4400F047F804462846A7
:1009E00000F056F810B14FF0FF3070BD204670BDDA
:1009F00057A6000010B5203AC0F00B80B1E818509F
:100A0000203AA0E81850B1E81850A0E81850BFF4F8
:100A1000F5AF5FEA027C24BFB1E81850A0E8185097
:100A200044BF18C918C0BDE810405FEA827C24BFEB
:100A300051F8043B40F8043B08BF7047D20728BF79
:100A400031F8023B48BF11F8012B28BF20F8023BC8
:100A500048BF00F8012B70470048704708F201209A
:100A600001694A1C02610878704700B58FB0CDE972
:100A700001310021059105497944CDE90310114662
:100A80006846FFF799FD0FB000BD0000E5FFFFFFCE
:100A9000007B00F0800070477546FFF7DDFFAE4633
:100AA00005006946534620F00700854618B020B57A
:100AB000FFF738FCBDE820404FF000064FF000077C
:100AC0004FF000084FF0000B21F00701AC46ACE8F6
:100AD000C009ACE8C009ACE8C009ACE8C0098D4663
:100AE00070470446AFF300802046FFF7D5FB704700
:100AF000704770477047704770477047704700BF36
:100B0000FEE700002DE9F0418AB004460D46164686
:100B10001F46DDF840801A481A4908601A480863E1
:100B20001A48486308464760C0F80880C4600661F8
:100B3000456100218161C1610162012141620021A1
:100B40008162C16201F04EF918B101200AB0BDE81E
:100B5000F081002000900190029003900490059095
:100B600006900120079008900E20099069460548DC
:100B700000F0BAFF08B10220E8E70020E6E7000035
:100B800000640040243500206435002080350020BA
:100B900010B5024801F040F810BD000024350020D7
:100BA0002DE9F04106460D46002400270020144997
:100BB000096B0860134800681149096B48600420FC
:100BC0000F49096B886000200D49096BC8600C480B
:100BD000006B056100BF06E0315D0948006B143011
:100BE0000155601C84B2AC42F6DB0A21044801F0D6
:100BF00067FA074617B10120BDE8F0810020FBE746
:100C000024350020B800002070B504460D46206849
:100C100000F5D87000EB0510006800F00400616B6F
:100C20008860606B806860B9206800F5D87000EB60
:100C30000510006840F2FF7101EA5050616B0860D6
:100C40000BE0206800F5D87000EB051000686FF02D
:100C5000604101EAD000616B4860206800F5D870FF
:100C600000EB0510006800F00200616BC8602068AE
:100C700000F5D87000EB0510406800F00F00616BC4
:100C80000861206800F5D87000EB05104068C0F3DB
:100C90000720616BC861206800F5D87000EB051073
:100CA0008068616B0875206800F5D87000EB05104E
:100CB0008068010A606B4175206800F5D87000EB10
:100CC00005108068010C606B8175206800F5D87094
:100CD00000EB05108068000E616BC875206800F598
:100CE000D87000EB0510C068C1B2606B0176206857
:100CF00000F5D87000EB0510C068010A606B417602
:100D0000206800F5D87000EB0510C068010C606B1E
:100D10008176206800F5D87000EB0510C068000EE1
:100D2000616BC8764DB920202168C8602068406991
:100D300020F002002168486108E020202168086155
:100D40002068406920F010002168486194F838005C
:100D500022281DD12068406920F4807021684861F4
:100D60002068406920F4007021684861206840696B
:100D700020F48060216848612068406920F40060A8
:100D8000216848612068406920F40040216848617A
:100D900094F83800322803D1122084F8380002E099
:100DA000012084F83800204601F048F9002070BD89
:100DB00010B504462068406920F0010021684861B0
:100DC00094F8380012281DD12068406920F4807002
:100DD000216848612068406920F4007021684861FA
:100DE0002068406920F4806021684861206840697B
:100DF00020F40060216848612068406920F40040C8
:100E00002168486194F83800322803D1222084F800
:100E1000380002E0012084F83800204601F080FA12
:100E2000002010BD01E003F0B9FEFCE710B590B062
:100E300040216846FFF731FD102269462B4807F034
:100E400043FE00240CE01DF80400AA2804D1601C15
:100E50001DF80000552802D0002025490870A41C68
:100E6000302CF0DB2248007801280FD19DF83300A8
:100E700000069DF8321040EA01409DF8311040EA2A
:100E800001209DF8301008431A49086001201849D4
:100E90000870102269461548403007F015FE0024FE
:100EA0000CE01DF80400AA2804D1601C1DF8000005
:100EB000552802D000200E490870A41C302CF0DB0D
:100EC0000B48007801280FD19DF8330000069DF8EB
:100ED000321040EA01409DF8311040EA01209DF8AF
:100EE000301008430449086010B010BD40000F08DE
:100EF00014000020B8000020BC000020BE200F49D4
:100F0000087048700E4800788870C81C0D490A683F
:100F1000026049684160C01E0B490988A0F80B10A7
:100F20000A48008800120549487308480078887309
:100F3000ED20C8730874002070470000CC320020F8
:100F4000A100002070000020780000209000002008
:100F50007047016801F58051896941F0020201681A
:100F600001F580518A617047016801F580518969F6
:100F700041F40052016801F580518A61704738B52B
:100F8000044600200090206800F58050806940F4FD
:100F90008011206800F580508161206800F5805044
:100FA00080690090012001F0BCF90099206800F5EB
:100FB0008050816138BD014600200A6802F000427D
:100FC00052B90A6802F4004232B90A6802F4807227
:100FD00012B10A68C2F30D407047000010B505F069
:100FE000A5FF01E00CF0DEFC0A49886AFFF7E3FF89
:100FF0000028F7D140210748006800F58050416182
:1010000089020448006800F58050416105F0A0FFA6
:1010100010BD0000F031002030B503461479557939
:1010200044EA0520084C0C442064D47824069578C2
:1010300044EA0544557844EA0524157844EA050055
:10104000014C0C44606430BD0080024070B5AEB00D
:1010500004460E46002526B14FF40061E160C90048
:10106000A16000201190129013901490159016908A
:10107000E06918B94FF48060179001E000201790E4
:101080004FF400701890002019901A901B901C903B
:101090001D9040201E9000201F9020902190102035
:1010A0002290002023902490259026908020279045
:1010B0000020289029902A902B902C902D90206829
:1010C000056871480540DDE911010843139908439B
:1010D00014990843A16808431599084316990843D1
:1010E000E168084317990843189908431999084378
:1010F0001A9908431B990843054320680560206836
:101100000568012001F00DF920680560DDE91C018A
:1011100008431E9908431F990843209908432199C1
:1011200008432299084323990843216848602068AE
:101130004568012001F0F5F8206845602498216891
:10114000886025982168C860206885694FF64170DD
:101150000540DDE9261040EA014028990843299915
:1011600008432A9908432B99084305432068856161
:1011700020688569012001F0D4F820688561DDE9E7
:101180002C0108432168C8612068C569012001F06D
:10119000C8F82068C561002001904FF000700290EF
:1011A000002003904FF4001004900020059006905A
:1011B0000790089004200990C0050A9040120B90F7
:1011C00080010C9040120D9080200E9000200F9016
:1011D0001090206800F5805085692C480540DDE9B5
:1011E00001010843039908430499084305990843FA
:1011F0000699084307990843089908430999084341
:101200000543206800F580508561206800F5805016
:101210008569012001F085F8206800F5805085611E
:10122000DDE90A0108430C9908430D9908430E991A
:1012300008430F9940EA81001099084340F40001E7
:10124000206800F580500160206800F58050056836
:10125000012001F066F8206800F580500560A06963
:10126000012809D1206800F58050C0690849084369
:10127000216801F58051C861002120466269FFF7AD
:10128000CBFE2EB070BD00000F8120FF233FDEF8A3
:101290004000010038B50446002000902068006836
:1012A00040F0040021680860206800680090012078
:1012B00001F037F800982168086038BD38B5044659
:1012C000002000902068006840F008002168086055
:1012D000206800680090012001F023F80098216840
:1012E000086038BD10B50A48016800200DF084F987
:1012F0000848016800200DF07FF9074801680020C8
:101300000DF07AF90548016800200DF075F910BD5F
:101310005000002054000020580000205C000020F5
:1013200010B54FF4A07100200DF078F90D49086058
:10133000A02100200DF072F90B49086043F68831B6
:1013400000200DF06BF90949086041F6C4510020F6
:101350000DF064F90649086000BF00BF00BF00BF80
:10136000002010BD50000020540000205800002034
:101370005C0000200021064A1170002005E000F109
:101380008101044A1154411CC8B25028F7DB704750
:101390009F000020A533002001201449087000227E
:1013A0000821134801F0E4FD01221103114801F066
:1013B000DFFD0121022007F03FF90021032007F0A3
:1013C0003BF912E00CA0FFF733F84FF4FA7008F085
:1013D0002FFD0121032007F02FF94FF4FA7008F0D8
:1013E00027FD0021032007F027F9EBE70400002088
:1013F000001C0240000402406572726F72206C6F24
:101400006F70202D20696E670A00000010B5FFF78D
:1014100087FF08B1012010BD0CF06CFA58B10848E4
:1014200028B1084818B1084808B1084808B9FFF7BA
:1014300059FF0220EFE706480CF0B4F80020EAE775
:101440005000002054000020580000205C000020C4
:10145000C0DE01200021144A1170FF21134A1170CF
:10146000134A11700021134A1170134A1170134A64
:101470001170134A1170134A1170134A1170134AF4
:101480001170134A1170134A1170134A1170002021
:1014900003E00021114A1154401C5028F9DB0021BF
:1014A0000F4A117070470000A0000020A10000202A
:1014B000A2000020A3000020A4000020A50000201E
:1014C000A6000020A7000020A8000020A9000020FE
:1014D000AA000020AB000020AC000020F533002063
:1014E000AD00002010B5002201B909E0012901D1A9
:1014F0000A0205E0022901D10A0201E04FF440721C
:101500000B2800D9001D114B1B6823F440730F4CAE
:10151000236023461B681343236023461B6823F084
:10152000F803236023461B68F82494FAA4F4B4FA61
:1015300084F400FA04F444F002042343034C2360CF
:1015400023461B6843F48033236010BD103C0240E7
:101550001C48006800F40070B0B11A48006820F41C
:1015600000701849086000BF0846006840F4006039
:1015700008600846006820F40060086000BF084664
:10158000006840F4007008600E48006800F4806055
:10159000B0B10C48006820F480600A49086000BFC0
:1015A0000846006840F4805008600846006820F44F
:1015B0008050086000BF0846006840F48060086002
:1015C00070470000003C024010B502460020144B5A
:1015D0001B6823F44073124C236023461B680343AB
:1015E0002360032906D123461B68E41323430C4CD4
:1015F00023600EE0012906D1094B1B6843F0040368
:10160000074C236005E0064B1B6843F40043044C81
:101610002360034B1B6843F48033014C236010BDEF
:10162000103C0240074A126822F44072054B1A60CF
:101630001A4612681A601A46126842F001021A60CD
:1016400001707047103C024010B50949096821F447
:101650004071074C21602146096841F440712160C6
:101660002146096841F0010121600260436010BD1C
:10167000103C0240084A126822F44072064B1A607D
:101680001A46126842F480721A601A46126842F0D2
:1016900001021A6001807047103C0240084A12683B
:1016A00022F44072064B1A601A46126842F4007225
:1016B0001A601A46126842F001021A60016070470F
:1016C000103C02402A480068C0F3001040B129488D
:1016D000C06940F010002749C86110202449086003
:1016E00023480068C0F3401040B12248C06940F070
:1016F00008002049C86120201D4908601C48006876
:10170000C0F3801040B11B48C06940F00400194983
:10171000C86140201649086015480068C0F3C01031
:1017200040B11448C06940F002001249C8618020ED
:101730000F4908600E480068C0F3002048B10D480A
:10174000C06940F001000B49C8614FF4807008493E
:10175000086007480068C0F3400040B10548C06910
:1017600040F020000349C861022001490860704729
:101770000C3C02409430002070B504460025002047
:101780001749C86101F0FAFB054609E0601C38B151
:1017900024B101F0F3FB401BA04201D9032070BD2E
:1017A00010480068C0F300400028EFD10D480068E1
:1017B00000F0010010B101200A49086009480068E2
:1017C00000F4F970B0F5F97F01D1012000E00020AC
:1017D00018B1FFF777FF0120E1E70020DFE7000005
:1017E000943000200C3C024030B502460023002417
:1017F0000868012816D013686FF30E03D1E90105BC
:101800002843CD6828430D6928434D6928438D69D5
:101810002843CD6928430D6A28434D6A2843034372
:10182000136019E013686FF30E03D1E9070528432D
:101830004D6A2843034354686FF30E04D1E9010550
:101840002843CD6828430D6928434D6928438D6995
:101850002843044313605460002030BD02465069A1
:1018600040EA4100506100207047F8B506460C463A
:101870001546002000900027D4E900010843A16824
:10188000491E40EA4110E16840EA4120009000987A
:10189000306101F073FB074609E0681C38B125B1DF
:1018A00001F06CFBC01BA84201D90320F8BDB06950
:1018B00000F020000028F0D100BFF7E770B5034624
:1018C000154600220024012D1FD09A6802F07042B4
:1018D0000868401E4E68761E40EA06168868401E5C
:1018E00046EA0026C868401E46EA0036088A401EBE
:1018F00046EA0046888A401E46EA0056087E401E98
:1019000046EA006002439A6022E0DA6802F0704220
:101910000868401E4E68761E40EA06168868401E1B
:1019200046EA0026088A401E46EA0046087E401E17
:1019300046EA006002439C6804F07044C868401E98
:101940000603888A401E46EA00500443DA609C6021
:10195000002070BD70B50546002405E01A48005D02
:101960001A490855601CC4B2112CF7DB17480078DF
:10197000BE2828D115484078BE2824D11348C07B02
:10198000ED2820D11148007CED281CD10F4880782B
:10199000052813D2DFE800F00306090C0F0009F058
:1019A00055FB0FE00BF0E4FB0CE00BF05BFA09E0F9
:1019B00008F0EAF906E00EF0A7FC03E004A0FEF749
:1019C00037FD00BF00BF70BDCC32002010350020B5
:1019D0006572726F720A00002DE9F04106460C46EE
:1019E0002046E11704EB5171CF10002504E006EB0F
:1019F000C50003F035FB6D1CBD42F8DBBDE8F0818E
:101A000070B50125002401222021314801F0B0FAEF
:101A1000322008F00DFAE9022E4801F0A1FA05463D
:101A20000DB944F0010400222021294801F0A0FA58
:101A300001224021264801F09BFA0125322008F0BE
:101A4000F7F9A902234801F08BFA05460DB944F0D5
:101A50000204002240211E4801F08AFA01221146A8
:101A60001D4801F085FA0125322008F0E1F96902EC
:101A7000184801F075FA05460DB944F00404002237
:101A80000121154801F074FA01220221124801F0E7
:101A90006FFA0125322008F0CBF929020D4801F038
:101AA0005FFA05460DB944F00804012240210948B7
:101AB00001F05EFA0125322008F0BAF980210548CC
:101AC00001F04EFA05460DB944F01004204670BDF1
:101AD00000000240001C02400004024000B506F075
:101AE000D3FDFFF7B7FC00BD30B5034600220C7DE7
:101AF000012000FA04F24648006840F00100444C1E
:101B000020602046006820F47C5020602046006859
:101B10004C6A40EA04203E4C20603D481C3000687E
:101B200090433B4C1C342060C869D8B938480C300D
:101B300000689043364C0C342060888880B28C89D1
:101B400040EA0444324840304D6940F83540088846
:101B500080B20C8940EA04442D4840304D6900EBC6
:101B6000C5004460C86901281BD129480C300068B1
:101B70001043274C0C342060888880B20C8840EADF
:101B80000444234840304D6940F83540888980B28C
:101B90000C8940EA04441E4840304D6900EBC50002
:101BA0004460886938B91A48001D00689043184C91
:101BB000241D206006E01648001D00681043144CE8
:101BC000241D2060086930B9114814300068904322
:101BD0000F4C143420600869012806D10C481430D9
:101BE000006810430A4C14342060086A012806D1AA
:101BF00007481C3000681043054C1C342060044822
:101C0000006820F00100024C2060002030BD000080
:101C100000660040704700002DE9F04104460025B1
:101C2000002600272068406900F0010018B32068F2
:101C3000806869490840884201D1012000E0002005
:101C400005462068806865490840884201D1012026
:101C500000E000200646206880686149084088420C
:101C600001D1012000E0002007460DB906B917B1E7
:101C70002046FFF79DF82068C06800F00305206843
:101C80004069C0F3400625B11EB100212046FEF791
:101C9000BBFF2068006900F0030520684069C0F3BD
:101CA000001625B11EB101212046FEF7ADFF2068C8
:101CB000806900F0010520684069C0F300262068B3
:101CC0004069C0F3C0372DB126B11FB1E06B40F0C1
:101CD0000100E06320688069C0F340052068406926
:101CE000C0F3402620684069C0F3C0372DB126B14B
:101CF0001FB1E06B40F00200E06320688069C0F330
:101D0000800520684069C0F3802620684069C0F3E0
:101D1000C0372DB126B11FB1E06B40F00400E06385
:101D20002068806900F0700008B9012000E0002000
:101D3000054620684069C0F3C02620684069C0F3AA
:101D4000C03795BB8EB387B32068806900F07005FB
:101D5000402D1BD006DC102D09D0202D0CD0302DAD
:101D600024D10EE0502D16D0602D1FD118E0E06B6D
:101D700040F00800E0631AE0E06B40F01000E06320
:101D800015E0E06B40F02000E06310E0E06B40F015
:101D90004000E0630BE0E06B40F08000E06306E0B1
:101DA000E06B40F48070E06301E007E000BF00BF3B
:101DB0002068806920F0700021688861E06B40B184
:101DC000042021684860012084F838002046FFF78D
:101DD00021FFBDE8F08100000300000400030008BB
:101DE0000000031070B50446032600250CB901203D
:101DF00070BD94F8380028B9002084F839002046D6
:101E000000F0D0F8022084F838002068006820F044
:101E10000200216808602068006840F00100216825
:101E2000086001F0ABF805460EE001F0A7F8401B92
:101E30000A2809D9032084F8380000BF002084F85C
:101E4000390000BF0320D3E72068406800F001009C
:101E50000028EAD02068406800F0010008B9002698
:101E600092E0A069012806D12068006840F0800057
:101E70002168086005E02068006820F08000216883
:101E80000860E069012806D12068006840F0400041
:101E90002168086005E02068006820F040002168A3
:101EA0000860206A012806D12068006840F0200000
:101EB0002168086005E02068006820F020002168A3
:101EC0000860606A012806D12068006840F01000B0
:101ED0002168086005E02068006820F01000216893
:101EE0000860A06A012806D12068006840F0080058
:101EF0002168086005E02068006820F0080021687B
:101F00000860E06A012806D12068006840F00400FB
:101F10002168086005E02068006820F0040021685E
:101F20000860D4E902010843216908436169084354
:101F30006168491E08432168C8612068006820F074
:101F400001002168086001F019F805460EE001F073
:101F500015F8401B0A2809D9032084F8380000BF6F
:101F6000002084F8390000BF032041E72068406862
:101F700000F001000028EAD12068406800F001006C
:101F800008B1002600E00126012E06D10020E06302
:101F9000012084F8380000202AE7042084F8380063
:101FA000012025E710B586B0044600BF0020009050
:101FB0001F48006840F000701D490860084600682E
:101FC00000F00070009000BF00BF00BF0020009034
:101FD00017481038006840F00100154910390860B2
:101FE0000846006800F00100009000BF00BF4FF4F9
:101FF000C050019002200290012003900220049022
:102000000920059001A90B4800F09CFE0A480068D1
:10201000406940F002000849096848610222012134
:10202000142000F0FBFF142000F0EBFF06B010BD01
:1020300040380240000002402435002010B501461F
:1020400000201A4A1268526942F00202174B1B68BC
:102050005A61164A526B5268154B1B689A4223D13B
:10206000144A12680832C823B2FBF3F403FB1422AB
:10207000114B1B689A4217D0104A0E4B1B681A442A
:102080000A4B5B6B5C6914609B695360094A126878
:102090000832084B1A601A461268C823B2FBF3F4E0
:1020A00003FB1422034B1A6010BD000024350020EE
:1020B000BC0000206A00002068000020DD32002003
:1020C0002DE9F04104460E460525002700BF94F88F
:1020D0003900012802D10220BDE8F081012084F8F6
:1020E000390000BF94F83800222803D1322084F848
:1020F000380002E0122084F838002068806800F080
:102100008060B0F1806F01D1002512E02068806806
:1021100000F00060B0F1006F01D1012509E02068F6
:10212000806800F08050B0F1805F01D1022500E0AE
:102130000425042D7ED0206800F5C07000EB05104A
:10214000006800F00101206800F5C07000EB051088
:102150000160206B806898B9206800F5C07000EBC2
:1021600005100068216BC968226B128841EA425150
:102170000843216801F5C07101EB0511086015E005
:10218000206800F5C07000EB05100068216B8968BD
:10219000226B526841EAC201226BD26811430843A4
:1021A000216801F5C07101EB05110860206B007C0E
:1021B00000F00F00216B0861206800F5C07000EB93
:1021C0000510406820F00F01206800F5C07000EB9A
:1021D00005104160206800F5C07000EB05104068F4
:1021E000216B09690843216801F5C07101EB0511F4
:1021F0004860206BC07D0106206B807D41EA004174
:10220000206B407D41EA0021206B007D0143206866
:1022100000F5C07000EB05108160206BC07E0106E8
:10222000206B807E41EA0041206B407E41EA002025
:10223000216B00E063E0097E0843216801F5C0716D
:1022400001EB0511C860206800F5C07000EB0510B7
:10225000006840F00101206800F5C07000EB051037
:10226000016000F08BFE074611E0701C78B126B1CA
:1022700000F084FEC01BB04209D9032084F8380066
:1022800000BF002084F8390000BF032024E74DB9C7
:10229000206880681F490840884201D1012016E06B
:1022A000002014E0012D09D1206880681A490840F7
:1022B000884201D101200AE0002008E020688068FF
:1022C00016490840884201D1012000E00020002882
:1022D000CBD094F83800322807D1222084F8380077
:1022E00000BF002084F8390007E0012084F838009E
:1022F00000BF002084F8390000BF0020ECE6042075
:1023000084F8380000BF002084F8390000BF0120A5
:10231000E2E60000030000040003000800000310D0
:10232000704731B5002400F029FE044600BF00F0DC
:1023300025FE001B00998842F9D338BD70B50446CC
:102340000D461646002200BF94F84500012801D131
:10235000022070BD012084F8450000BF022084F8EF
:102360004400A56200221FE005EB42114FF000403F
:10237000086044F2F4504860C2EBC21000EB400029
:1023800006EB80008860A069012803D1486820F02E
:1023900000404860581E904204D905EB421020309E
:1023A000C86000E0CD60521C9A42DDD3206800F581
:1023B0008050C560012084F8440000BF002084F8EC
:1023C000450000BF00BFC4E770B504460D46164681
:1023D000002200BF94F84500012801D1022070BD01
:1023E000012084F8450000BF022084F84400E56223
:1023F00000221BE005EB42114FF480100860C2EB95
:10240000C21000EB400006EB80008860E06918B95C
:10241000086840F440000860581E904204D905EB5B
:1024200042102030C86000E0CD60521C9A42E1D3D7
:10243000206800F580500561012084F8440000BF49
:10244000002084F8450000BF00BFC8E70146002215
:1024500000BF91F84500012801D1022070470120FA
:1024600081F8450000BF022081F84400886A0068B6
:1024700000F00040002838D1886A006800F48070BD
:10248000F0B1886B401C8863886B012801D1886A91
:1024900008638B6A4B63886A0068C0F30D40021FB3
:1024A000CA63086B83680B64886AC068886201200D
:1024B00081F8440000BF002081F8450000BFCDE74F
:1024C000886A006800F4007048B1886A08630023D5
:1024D0004B6301238B63886AC068886205E0886B60
:1024E000401C8863886AC0688862012081F84400C3
:1024F00000BF002081F8450000BF0120AEE70000CA
:102500002DE9FC4104460025002001909E4E002745
:10251000804614B90120BDE8FC8100BF0020009076
:102520009A48006840F4804098490860084600686E
:1025300000F48040009000BF00BF9548006820F480
:1025400000009349086008460068216A08439049E2
:10255000086094F8440028B9002084F8450020461B
:1025600000F02EF989483438006840F0007087493F
:10257000343908600846006820F000700860206860
:1025800000F58050006840F00101206800F580509F
:10259000016000BF206800F58050006800F0010075
:1025A0000028F7D12068056925F01C0500F054FFCC
:1025B00006467848864205D37748864202D245F0DF
:1025C00008051AE07448864205D36F48864202D255
:1025D00045F00C0511E06C48864203D36F488642F3
:1025E00000D20AE06D48864205D36D48864202D289
:1025F00045F0040501E045F01005206805614FF441
:1026000000420021204600F091FA48B14FF0010845
:1026100041462046FEF71AFD012084F844007AE77F
:10262000FF20FFF77EFE6068002872D000F0A6FC55
:10263000074600BF01AA0121204600F067F900F01B
:102640009DFCC01B42F21071884213D94FF0010863
:1026500041462046FEF7FAFC012084F8440000BF02
:10266000002084F8450000BF4EA00199FDF7E0FE70
:10267000032050E7019800F004000428DAD149A0B3
:102680000199FDF7D5FE4FF480520021204600F05D
:102690004DFA48B14FF0010841462046FEF7D6FCFE
:1026A000012084F8440036E700F068FC074600BFCC
:1026B00001AA0121204600F029F900F05FFCC01BAF
:1026C00042F2107188420FD94FF00108414620466E
:1026D000FEF7BCFC012084F8440000BF002084F811
:1026E000450000BF032016E7019800F020002028D5
:1026F000DED101AA1F21204600F008F950B14FF0A9
:10270000010841462046FEF7A1FC012084F8440060
:1027100001E715E0019800F0100018B14FF40061D6
:10272000E16001E00021E160019800F0040004286C
:1027300002D10021A1601DE04FF48041A16019E0A9
:10274000E068C0F3CF00A168C1F34F0140EA010285
:102750000021204600F0EAF948B14FF00108414657
:102760002046FEF773FC012084F84400D3E6FF20E6
:10277000FFF7D7FD41462046FEF768FC012084F8AC
:1027800044000020C7E6000000879303443802405D
:1027900004380140002D3101C00E160200E1F5059C
:1027A00080D1F008636865636B206C696E6B207084
:1027B0006879726567203D202325303878200A002B
:1027C00010B586B0044600BF00BF002000904A4804
:1027D000006840F00070484908600846006800F052
:1027E0000070009000BF00BF00BF002000900846AE
:1027F000006840F0806008600846006800F0806073
:10280000009000BF00BF00BF002000900846006895
:1028100040F0006008600846006800F0006000902A
:1028200000BF00BF00BF00BF002000900846006846
:1028300040F0010008600846006800F001000090C8
:1028400000BF00BF00BF002000900846006840F0B5
:10285000020008600846006800F00200009000BF17
:1028600000BF00BF002000900846006840F0040050
:1028700008600846006800F00400009000BF00BF38
:1028800000BF002000900846006840F0400008604B
:102890000846006800F04000009000BF00BF86209E
:1028A00001900220029000200390032004900B204E
:1028B000059001A9114800F045FA4FF4006001901D
:1028C00001A90F4800F03EFA3220019001A90D48FD
:1028D00000F038FA4FF4C040019001A90A4800F016
:1028E00031FA002211463D2000F098FB3D2000F017
:1028F00088FB06B010BD00003038024000000240E6
:10290000000402400008024000180240F8B50446E6
:102910000E46174600250020009094F844008228B7
:1029200001D10220F8BD822084F8440020680569A6
:1029300005F01C05208A4FF4784101EAC0200543C8
:10294000481100EA8610054325F0020545F001050F
:102950002068056100F012FB009012E000F00EFB11
:102960000099401AB0F5803F09D3012084F8440053
:1029700000BF002084F8450000BF0320D2E7206894
:10298000056905F001000028E8D12068406980B29F
:102990003860012084F844000020C3E710B50446E5
:1029A00000BF94F84500012801D1022010BD01208C
:1029B00084F8450000BF022084F844002046FEF75A
:1029C0007DFC2046FEF766FC2046FEF7D8FA20463E
:1029D000FEF7CAFA2046FEF7BCFA012084F844004C
:1029E00000BF002084F8450000BF00BFDEE770B5DF
:1029F000024600230025002400BF92F8450001286C
:102A000001D1022070BD012082F8450000BF0220E4
:102A100082F8440049B9012082F8440000BF002038
:102A200082F8450000BF0120ECE7D06A006800F0A2
:102A3000004048B1122082F8440000BF002082F814
:102A4000450000BF0120DDE740F2F450814208D983
:102A5000B1FBF0F3B1FBF0F600FB161010B15B1CFC
:102A600000E00123012B13D1D06A006840F04050F0
:102A7000D66A3060C1F30C00D66A7060D06A006814
:102A800040F00040D66A3060D06AC068D06232E060
:102A900000242EE0D06A006820F04050D66A3060F2
:102AA0002CB9D06A006840F08050D66A306040F29D
:102AB000F450D66A7060581EA04210D1D06A0068E7
:102AC00040F00050D66A3060581EC0EBC01000EBDA
:102AD0004000A1EB8005C5F30C00D66A7060D06A97
:102AE000006840F00040D66A3060D06AC068D062AA
:102AF000641C9C42CED3106800F58050406900F001
:102B0000040048B10426106800F580504661002694
:102B1000106800F580504660012082F8440000BF34
:102B2000002082F8450000BF00BF6BE72DE9F041AF
:102B300004460E4617460025A84694F8440042284D
:102B400002D10220BDE8F081422084F844002068D0
:102B5000056905F01C05208A4FF4784101EAC02080
:102B60000543481100EA8610054345F0020545F08B
:102B70000105B8B2216848612068056100F0FEF9DE
:102B8000804612E000F0FAF9A0EB0800B0F5803FB3
:102B900009D3012084F8440000BF002084F84500D8
:102BA00000BF0320CEE72068056905F0010000287A
:102BB000E8D1012084F844000020C3E72DE9F0416A
:102BC00004460E460127002500BF2648007E012846
:102BD00002D10220BDE8F08101202249087600BF21
:102BE0004CF25030FEF7C8FD0746002F32D1401E90
:102BF00030602068012810D1207C6168FEF7E4FC79
:102C00004CF25030FEF7B8FD07461748006848F20E
:102C100004018843144908601AE0A56812E0217C89
:102C20002846FEF75FFC4CF25030FEF7A5FD074644
:102C30000D48006820F0FA000B4908600FB13560BC
:102C400005E06D1CD4E902100844A842E7D800BF93
:102C5000FEF77EFC00BF00200249087600BF384620
:102C6000B8E7000094300020103C024003480068A0
:102C700040F000400149086000207047103C0240CD
:102C80002DE9F04106460F4614461D464FF0010857
:102C900000BF1F48007E012802D10220BDE8F0815C
:102CA00001201B49087600BF4CF25030FEF764FD4E
:102CB0008046B8F1000F23D126B9E1B23846FEF7BD
:102CC000B1FC12E0012E04D1A1B23846FEF7D2FCCD
:102CD0000BE0022E04D121463846FEF7DFFC04E06B
:102CE00022462B463846FEF7AFFC4CF25030FEF73A
:102CF00043FD80460748006820F001000549086050
:102D000000BF00200249087600BF4046C6E7000029
:102D100094300020103C02400748006800F000405A
:102D200030B1064804490C3908600548086001E0E4
:102D3000012070470020FCE7103C0240230167455A
:102D4000AB89EFCDF8B502460B46002500240020E4
:102D50000021E6E0012606FA01F51E6806EA0504F0
:102D6000AC4273D15E68022E02D05E68122E13D17F
:102D7000CF0802F1200656F827004E07F70E0F265F
:102D8000BE40B0434F07FF0E1E69BE403043CF0820
:102D900002F1200646F8270010684F000326BE40C7
:102DA000B0431E7906F003064F00BE40304310606A
:102DB0005E68012E08D05E68022E05D05E68112E76
:102DC00002D05E68122E13D190684F000326BE40D9
:102DD000B0434F00DE68BE4030439060506801262B
:102DE0008E40B0431E79C6F300168E4030435060CB
:102DF000D0684F000326BE40B0434F009E68BE40DF
:102E00003043D0605E6806F08056B6F1805FA8D18E
:102E100000BF00260096454E366846F48046434F74
:102E20003E603E46366806F48046009600BF00BF0E
:102E30003F4E8F0856F827008E07370F0F26BE40EB
:102E4000B0433C4EB24202D100262EE068E03A4E3A
:102E5000B24201D1012628E0384EB24201D1022609
:102E600023E0374EB24201D103261EE0354EB24276
:102E700001D1042619E0344EB24201D1052614E0F6
:102E8000324EB24201D106260FE0314EB24201D19C
:102E900007260AE02F4EB24201D1082605E02E4E49
:102EA000B24201D1092600E00A268F073F0FBE403B
:102EB00030431F4E8F0846F82700284E3068A04345
:102EC0005E6806F48036B6F5803F00D12043234E7D
:102ED0003060361D3068A0435E6806F40036B6F5F3
:102EE000003F00D120431D4E361D3060361D306836
:102EF000A0435E6806F48016B6F5801F00D120431B
:102F0000164E08363060361D3068A0435E6806F401
:102F10000016B6F5001F00D12043104E0C3630606D
:102F2000491C1029FFF416AFF8BD000044380240D8
:102F3000083801400000024000040240000802403E
:102F4000000C024000100240001402400018024031
:102F5000001C02400020024000240240003C0140CE
:102F6000024613690B400BB1012000E000207047BE
:102F70000AB1816101E00B04836170470148006878
:102F8000704700003C00002002480068401C0149D6
:102F9000086070473C00002010B50D48006840F400
:102FA00000700B4908600846006840F480600860C3
:102FB0000846006840F480700860052000F06CF856
:102FC0000F2000F007F800F017F8002010BD0000F7
:102FD000003C024070B5044600F03EFA4FF47A71AE
:102FE000B0FBF1F5284600F0DCFD00222146501E22
:102FF00000F014F8002070BD08B50020009000BF5C
:1030000008BD00BF00F01F0201219140420992005B
:1030100002F1E022C2F8001100BF70472DE9F05F15
:1030200080460D461646002703F008FF074639463E
:103030002A46334601F00700C0F1070ABAF1040F2F
:1030400002D94FF0040A01E0C0F1070AD14600F1AD
:10305000040ABAF1070F02D24FF0000A01E0A0F112
:10306000030AD4464FF0010A0AFA09FAAAF1010A42
:103070000AEA020A0AFA0CFA4FF0010B0BFA0CFBEF
:10308000ABF1010B0BEA030B4AEA0B042146404665
:1030900003F0DCFEBDE8F09F00BF00F00702064B26
:1030A00019684FF6FF031940044B0B4343EA022112
:1030B000014B196000BF70470CED00E00000FA05FD
:1030C00000BF00BF00BF00BF00BFBFF34F8F00BFF6
:1030D00000BF00BF0948006800F4E06008490843E9
:1030E000001D0649086000BF00BF00BFBFF34F8F3F
:1030F00000BF00BF00BF00BF00BFFDE70CED00E058
:103100000000FA0538B5002400BF002000902348D5
:10311000006840F08050214908600846006800F0CF
:103120008050009000BF00BF0120010491FAA1F17E
:10313000B1FA81F11A4A42F82100FFF71FFF044655
:1031400007E0FFF71BFF001BB0F57A7F01D90320D2
:1031500038BD1448406800F48030B0F5803FF0D1AD
:103160000120410491FAA1F1B1FA81F10C4A42F82F
:103170002100FFF703FF044607E0FFF7FFFE001BF7
:10318000B0F57A7F01D90320E2E70648406800F4F1
:103190000030B0F5003FF0D10020D9E740380240C0
:1031A00000000E420070004070B504460E46002537
:1031B000A748006800F00F00B0426FD2A4490E701B
:1031C0000846006800F00F00B04201D0012070BD39
:1031D000207800F00200022807D19E48006820F005
:1031E000F000A16808439B490860207800F00100C6
:1031F00000283ED06068012807D19648083800684A
:10320000C0F34040B8B90120E1E76068022802D06D
:103210006068032807D18F4808380068C0F3406011
:1032200048B90120D3E78B4808380068C0F3400054
:1032300008B90120CBE78748006820F003006168E7
:10324000084384490860FFF799FE05466068012835
:1032500010D108E0FFF792FE401B41F2883188420E
:1032600001D90320B3E77B48006800F00C00042874
:10327000F0D1CDE06068022811D108E0FFF77EFEB2
:10328000401B41F28831884201D903209FE77148F1
:10329000006800F00C000828F0D1B9E024E0606874
:1032A000032810D108E0FFF769FE401B41F2883186
:1032B000884201D903208AE76648006800F00C00C4
:1032C0000328F0D1A4E008E0FFF758FE401B41F2CC
:1032D0008831884201D9032079E75E48006800F010
:1032E0000C000028F0D193E0207800F002000228C2
:1032F00007D15848006820F0F000A16808435549FC
:103300000860207800F00100002877D0606801286C
:1033100007D1504808380068C0F34040B8B90120D0
:1033200055E76068022802D06068032807D1494841
:1033300008380068C0F3406048B9012047E74548B5
:1033400008380068C0F3400008B901203FE7414851
:10335000006820F00300616808433E490860FFF7F9
:103360000DFE05466068012810D108E0FFF706FE53
:10337000401B41F28831884201D9032027E73548B4
:10338000006800F00C000428F0D137E060680228E3
:1033900010D108E0FFF7F2FD401B41F2883188426E
:1033A00001D9032013E72B48006800F00C0008281F
:1033B000F0D123E06068032810D108E0FFF7DEFDBC
:1033C000401B41F28831884201D90320FFE62148A1
:1033D000006800F00C000328F0D10FE008E0FFF7D0
:1033E000CDFD401B41F28831884201D90320EEE631
:1033F0001848006800F00C000028F0D114490E7045
:103400000846006800F00F00B04201D00120DEE65F
:10341000207800F00400042807D10E48006820F44A
:10342000E050E16808430B490860207800F008008C
:10343000082808D10748006820F46040216940EA64
:10344000C100044908600F20FFF7C4FD0020BEE65C
:10345000003C02400838024010B500F045F8094928
:10346000096801F0F001F02292FAA2F2B2FA82F2B7
:10347000D140054A515CC8400449086008460068CC
:1034800010BD0000083802406E0D01081800002031
:1034900010B5FFF7E1FF0749096801F4E0514FF467
:1034A000E05292FAA2F2B2FA82F2D140024A515CA0
:1034B000C84010BD083802406E0D010810B5FFF776
:1034C000CBFF0749096801F460414FF4604292FA6A
:1034D000A2F2B2FA82F2D140024A515CC84010BD59
:1034E000083802406E0D010870B50021002200234B
:1034F0000020274C246804F00C0424B1042C04D0D0
:10350000082C41D103E0234840E023483EE0204C12
:10351000241F246804F03F011D4C241F246804F478
:10352000800484B11C4CB4FBF1F5194C241F2468B1
:1035300047F6C076344096FAA6F6B6FA86F6F44018
:1035400005FB04F20FE0134CB4FBF1F5104C241F03
:10355000246847F6C076344096FAA6F6B6FA86F6A0
:10356000F44005FB04F20A4C241F246804F44034A0
:103570004FF4403595FAA5F5B5FA85F5EC40641C95
:103580006300B2FBF3F001E0024800BF00BF70BD72
:10359000083802400024F40040787D0138B5044624
:1035A0000025207800F00100002866D0F748006868
:1035B00000F00C0004280DD0F448006800F00C0066
:1035C000082813D1F148001F006800F48000B0F50E
:1035D000800F0BD1ED4808380068C0F34040002848
:1035E0004BD06068002848D1012038BD0020E74951
:1035F000891F0870FFF7C2FC054608E0FFF7BEFC14
:10360000401B41F28831884201D90320EDE7DF48B1
:1036100008380068C0F340400028EFD12079DB492A
:10362000891F08706068A0B1FFF7A8FC054608E094
:10363000FFF7A4FC401B41F28831884201D90320E6
:10364000D3E7D24808380068C0F340400028EFD0E4
:1036500013E0FFF793FC054608E0FFF78FFC401BE3
:1036600041F28831884201D90320BEE7C7480838B3
:103670000068C0F340400028EFD1207800F002003D
:10368000022869D1C148006800F00C0058B1BF4859
:10369000006800F00C00082821D1BC48001F006819
:1036A00000F48000D8B9B94808380068C0F3400079
:1036B00020B1E068012801D0012096E7B34808381E
:1036C000006820F0F800F82292FAA2F2B2FA82F230
:1036D000216991400843AD49083908603CE0E06841
:1036E00028B30120AA490860FFF748FC054606E018
:1036F000FFF744FC401B642801D9032075E7A34869
:1037000008380068C0F340000028F1D09F4808380E
:10371000006820F0F800F82292FAA2F2B2FA82F2DF
:1037200021699140084399490839086014E0002054
:1037300097490860FFF722FC054606E0FFF71EFCEC
:10374000401B642801D903204FE7904808380068DF
:10375000C0F340000028F1D1207800F008000828CC
:103760002CD16069A8B101208A490860FFF706FCE6
:10377000054606E0FFF702FC401B642801D9032040
:1037800033E782486C300068C0F340000028F1D075
:1037900014E000207F490860FFF7F0FB054606E0D3
:1037A000FFF7ECFB401B642801D903201DE7774895
:1037B0006C300068C0F340000028F1D1207800F0A0
:1037C000040004286FD100BF002000906F483830FB
:1037D000006840F080506D49383108600846006844
:1037E00000F08050009000BF00BF6B48006840F4BC
:1037F000807069490860FFF7C1FB054606E0FFF7E6
:10380000BDFB401B642801D90320EEE66248006836
:1038100000F480700028F2D000205C496831087004
:10382000FFF7ACFB054608E0FFF7A8FB401B41F2A1
:103830008831884201D90320D7E6544868300068AF
:10384000C0F340000028EFD1207A50496831087059
:10385000A068A0B1FFF792FB054608E0FFF78EFBDA
:10386000401B41F28831884201D90320BDE6474818
:1038700068300068C0F340000028EFD013E0FFF785
:103880007DFB054608E0FFF779FB401B41F28831DC
:10389000884201D90320A8E63C4868300068C0F39C
:1038A00040000028EFD1A069F0B33848006800F06C
:1038B0000C00082872D0A069022850D10020344999
:1038C0000866FFF75BFB054606E0FFF757FB401B6A
:1038D000642801D9032088E62C4808380068C0F322
:1038E00040600028F1D1D4E90701084347F6C072CF
:1038F00092FAA2F2B2FA82F2616A9140084301227E
:10390000A16AC2EB51014FF4403292FAA2F2B2FA2C
:1039100082F2914008434FF0706292FAA2F2B2FA3A
:1039200082F2E16A914000E03AE008431749091F3A
:103930000860012016490866FFF720FB054606E0EF
:10394000FFF71CFB401B642801D903204DE60F48FC
:1039500008380068C0F340600028F1D020E0002063
:103960000B490866FFF70AFB054606E0FFF706FB72
:10397000401B642801D9032037E604480838006852
:10398000C0F340600028F1D10AE007E008380240A7
:1039900000004742800E474200700040012024E6AC
:1039A000002022E670B504460D460CB9012070BD1A
:1039B00094F82C0028B9002084F82D00204600F04F
:1039C00011F8022084F82C00211D2068FDF70CFF5F
:1039D0002946D4E90002FDF771FF012084F82C008C
:1039E0000020E4E710B586B0044600BF0020009038
:1039F0004348006840F001004149086008460068FB
:103A000000F00100009000BF00BF00BF0020009048
:103A10003B480838006840F004003949083908601C
:103A20000846006800F00400009000BF00BF00BF1F
:103A3000002000900846006840F008000860084632
:103A4000006800F00800009000BF00BF00BF002029
:103A500000900846006840F01000086008460068C2
:103A600000F01000009000BF00BF00BF00200090D9
:103A70000846006840F0200008600846006800F032
:103A80002000009000BF00BF00BF0020009008464B
:103A9000006840F0400008600846006800F0400000
:103AA000009000BF00BF0D20019002200290012075
:103AB0000390032004900C20059001A91148FFF702
:103AC00041F94CF20370019001A90F48FFF73AF950
:103AD0004FF68370019001A90C48FFF733F94FF6B8
:103AE0003F00019001A90A48FFF72CF948F237106E
:103AF000019001A90748FFF725F906B010BD0000A5
:103B00003838024000080240000C02400010024019
:103B1000001402400018024070B504460D4694F8A7
:103B20002C00022800D170BD022084F82C00294608
:103B30002068FDF793FE012084F82C000020F2E7B6
:103B400070B504460D46164694F82C00022800D1A4
:103B500070BD022084F82C00324629462068FDF70B
:103B600084FE2868022803D1052084F82C0002E096
:103B7000012084F82C000020EAE7042808D14FF047
:103B8000E021096941F004014FF0E022116107E0F2
:103B90004FF0E021096921F004014FF0E0221161AA
:103BA000704770B504462546681EB0F1807F01D38A
:103BB00001200FE0681E4FF0E02148610F214FF017
:103BC000FF3003F043F900204FF0E0218861072027
:103BD0000861002070BD7047704710B50446022090
:103BE00084F8390000BF2068006A41F211110840D2
:103BF00050B92068006A8910084028B92068006818
:103C000020F001002168086000BF204600F022F883
:103C1000002084F8390000BF84F8380000BF10BDD0
:103C200010B504460CB9012010BD94F8390028B92C
:103C3000002084F83800204600F00EF8022084F8B6
:103C40003900211D206805F0D7FC012084F83900D7
:103C50000020E9E77047000038B504462068B0F15D
:103C6000804F17D100BF002000900B48006840F043
:103C70000100094908600846006800F00100009052
:103C800000BF00BF032201211C20FFF7C7F91C2041
:103C9000FFF7B7F938BD0000403802400146086818
:103CA000C06840F001000A68D0600868006840F011
:103CB00001000A6810600020704701460868C0686B
:103CC00020F001000A68D06000BF0868006A41F275
:103CD0001112104050B90868006A9210104028B9BB
:103CE0000868006820F001000A68106000BF00202A
:103CF0007047704710B5044620680069C0F3400063
:103D0000D8B12068C068C0F34000B0B16FF00200C5
:103D100021680861012020762068806900F0030096
:103D200018B12046FFF7E5FF05E0204600F0ADF8AA
:103D3000204600F0ABF90020207620680069C0F32F
:103D40008000D8B12068C068C0F38000B0B16FF0C7
:103D5000040021680861022020762068806900F450
:103D6000407018B12046FFF7C4FF05E0204600F080
:103D70008CF8204600F08AF900202076206800693F
:103D8000C0F3C000D8B12068C068C0F3C000B0B1B3
:103D90006FF0080021680861042020762068C0695F
:103DA00000F0030018B12046FFF7A3FF05E020460E
:103DB00000F06BF8204600F069F9002020762068BA
:103DC0000069C0F30010D8B12068C068C0F30010CB
:103DD000B0B16FF0100021680861082020762068DB
:103DE000C06900F4407018B12046FFF782FF05E07B
:103DF000204600F04AF8204600F048F900202076DE
:103E00002068006900F0010058B12068C06800F027
:103E1000010030B16FF0010021680861204600F018
:103E2000A1F920680069C0F3C01058B12068C068CB
:103E3000C0F3C01030B16FF08000216808612046E7
:103E4000FFF7C9FE20680069C0F3801058B12068F0
:103E5000C068C0F3801030B16FF040002168086185
:103E6000204600F0B7F920680069C0F3401058B14F
:103E70002068C068C0F3401030B16FF020002168A6
:103E800008612046FFF7A8FE10BD704770B50446D4
:103E90000D46164600BF94F83800012801D10220D3
:103EA00070BD012084F8380000BF022084F839007A
:103EB00036B1042E1BD0082E31D00C2E5ED145E039
:103EC0002946206805F018FC2068806940F0080049
:103ED000216888612068806920F004002168886179
:103EE00020688069296908432168886147E029467C
:103EF000206805F039FC2068806940F40060216882
:103F000088612068806920F4806021688861206869
:103F10008069296940EA0120216888612FE02946EB
:103F2000206805F05DFC2068C06940F00800216849
:103F3000C8612068C06920F004002168C861206859
:103F4000C069296908432168C86118E029462068CA
:103F500005F082FC2068C06940F400602168C861F7
:103F60002068C06920F480602168C8612068C06949
:103F7000296940EA01202168C86100E000BF00BF54
:103F8000012084F8390000BF002084F8380000BF09
:103F900000BF85E710B50446022084F8390000BF51
:103FA0002068006A41F21111084050B92068006A87
:103FB0008910084028B92068006820F001002168B5
:103FC000086000BF204600F022F8002084F8390085
:103FD00000BF84F8380000BF10BD10B504460CB90E
:103FE000012010BD94F8390028B9002084F8380069
:103FF000204600F00DF8022084F83900211D2068C9
:1040000005F0FAFA012084F839000020E9E770474A
:1040100010B586B0044600BF002000901948006823
:1040200040F40030174908600846006800F400308A
:10403000009000BF00BF00BF00200090114814385E
:10404000006840F020000F491439086008460068F5
:1040500000F02000009000BF00BF4020019002202F
:1040600002900120039003200490059001A90648C6
:10407000FEF768FE002240210348FEF779FF06B0F4
:1040800010BD000044380240001402407047000098
:1040900030B504460D4601222946206805F01EFB76
:1040A0000C492068884203D00B492068884201D11E
:1040B000012000E0002028B12068406C40F400405E
:1040C000216848642068006840F0010021680860A9
:1040D000002030BD000001400004014030B504461E
:1040E0000D4600222946206805F0F8FA1B49206891
:1040F000884203D01A492068884201D1012000E09B
:10410000002090B100BF2068006A41F21111084000
:1041100050B92068006A8910084028B92068406CAE
:1041200020F400402168486400BF00BF2068006A96
:1041300041F21111084050B92068006A8910084006
:1041400028B92068006820F001002168086000BFDD
:10415000012084F83900002030BD0000000001403B
:104160000004014010B586B004461548844224D1AD
:1041700014480078012806D100211348FFF7AEFF4C
:104180001148FFF707FF4020019001200290032013
:1041900004900220039001A90C48FEF7D3FD0022F1
:1041A00040210A48FEF7E4FE0548FFF786FD044873
:1041B000FFF713FD00200649087006B010BD00008F
:1041C000903200209B000020383200200014024072
:1041D0009A00002070477047014691F839007047F7
:1041E000F8B50446002500262068006800F00105A7
:1041F0002068C06800F480767DB176B100BF0020F1
:10420000009020680068009020684068009000BF1F
:1042100000BFE06B40F00100E06320680068C0F37D
:1042200040052068406900F001067DB176B100BF0D
:10423000002000902068006800902068406800908E
:1042400000BF00BFE06B40F00400E063206800683E
:10425000C0F380052068406900F001067DB176B1A9
:1042600000BF00200090206800680090206840682F
:10427000009000BF00BFE06B40F00200E0632068E8
:104280000068C0F3C0052068406900F001067DB1F8
:1042900076B100BF00200090206800680090206880
:1042A0004068009000BF00BFE06B40F00800E06392
:1042B00020680068C0F340152068C06800F0200640
:1042C0001DB116B1204605F00FFB20680068C0F351
:1042D000C0152068C06800F080061DB116B12046E8
:1042E00005F072FC20680068C0F380152068C06883
:1042F00000F040061DB116B1204605F0DDFAE06B76
:1043000028B1012084F839002046FFF764FFF8BD8A
:1043100010B504460CB9012010BDA06900B100E041
:1043200000BF94F8390028B9002084F838002046EE
:1043300000F026F8022084F839002068C06820F4D4
:1043400000502168C860204605F02CFB20680069F9
:1043500020F49040216808612068406920F02A001C
:10436000216848612068C06840F400502168C86036
:104370000020E063012084F839000020CCE7000031
:1043800010B586B004462249206888423ED100BF5D
:10439000002000901F48006840F001001D4908609F
:1043A0000846006800F00100009000BF00BF00BF99
:1043B0000020009017481430006840F010001549A4
:1043C000143108600846006800F01000009000BF3B
:1043D00000BF4815019002200290012003900220A6
:1043E00004900720059001A90B48FEF7ABFC4FF4A1
:1043F0008060019001A90848FEF7A4FC2520FEF783
:1044000000FE032211462520FEF708FE06B010BD6F
:1044100000100140303802400000024030B5034631
:10442000002493F83940012C01D0122C37D101B16E
:104430000AB9012030BD00BF93F83800012801D12E
:104440000220F7E7012083F8380000BF99629A85BF
:10445000DA850020D86393F83900122803D132207E
:1044600083F8390002E0222083F839001868C06818
:1044700040F480701D68E8601868406940F00100F1
:104480001D68686100BF002083F8380000BF18680D
:10449000C06840F020001D68E8600020CAE70220E4
:1044A000C8E700001D4A0168914236D11C490988BD
:1044B00001F4004189BB1A49098801F4804171B1B6
:1044C000184909780A2903D00021154A118024E0EF
:1044D0001349098841F40041114A11801DE0114936
:1044E00009780D2906D10E49098841F480410C4A0A
:1044F000118012E00B490978094A1288C2F30D02B3
:10450000094B995406490988491C054A11801146EE
:104510000988C72901DD0021118070470010014082
:104520004C0000204E000020B430002070470000F6
:1045300010B50446E4B900224FF400512848FEF7B4
:1045400017FD00224FF400712648FEF711FD0022EE
:104550004FF480612348FEF70BFD00220121224821
:10456000FEF706FD002204212048FEF701FD36E09B
:10457000012C19D1002261031948FEF7F9FC002231
:1045800061021848FEF7F4FC0022A1021548FEF76C
:10459000EFFC002201211448FEF7EAFC002204216E
:1045A0001248FEF7E5FC1AE0022C18D10022210384
:1045B0000B48FEF7DDFC002221020A48FEF7D8FC7A
:1045C000002261020748FEF7D3FC0122114606488B
:1045D000FEF7CEFC002204210448FEF7C9FC10BD02
:1045E000000802400014024000000240001C02408B
:1045F00010B50446002C5DD100224FF48071FE48B6
:10460000FEF7B6FC00224FF40051FC48FEF7B0FC68
:1046100000224FF40071FA48FEF7AAFC00224FF482
:104620008061F748FEF7A4FC00224FF40061F448D3
:10463000FEF79EFC00224021EF48FEF799FC002285
:104640008021ED48FEF794FC00224FF48071EC4885
:10465000FEF78EFC00220421EA48FEF789FC0022C6
:104660000821E848FEF784FC00221021E548FEF707
:104670007FFC00222021E348FEF77AFC0022402143
:10468000E048FEF775FC00224FF40071DA48FEF7AF
:104690006FFC00224FF48061D748FEF769FC0022CE
:1046A0000121D948FEF764FC00220421D748FEF717
:1046B0005FFC67E2012C32D101221102CE48FEF7E5
:1046C00057FC00226103CD48FEF752FC0022610234
:1046D000CB48FEF74DFC0022A102C948FEF748FC7A
:1046E0000022E102C648FEF743FC00224021C248F6
:1046F000FEF73EFC00228021BF48FEF739FC012274
:104700000821C048FEF734FC01221021BD48FEF705
:104710002FFC01224021BB48FEF72AFC32E2022C8A
:1047200032D101221102B448FEF722FC00222103FB
:10473000B248FEF71DFC00222102B148FEF718FC2A
:1047400000226102AE48FEF713FC0022A102AC4831
:10475000FEF70EFC00224021A748FEF709FC0022CC
:104760008021A548FEF704FC01220821A548FEF798
:10477000FFFB01221021A348FEF7FAFB0022402193
:10478000A048FEF7F5FBFDE1032C36D10122110212
:104790009948FEF7EDFB00224FF400519748FEF7D1
:1047A000E7FB00224FF400719548FEF7E1FB002281
:1047B0004FF480619248FEF7DBFB00224FF400616A
:1047C0008F48FEF7D5FB002240218B48FEF7D0FB37
:1047D000002280218848FEF7CBFB0122082189486E
:1047E000FEF7C6FB002210218648FEF7C1FB01221E
:1047F00020218448FEF7BCFBC4E1042C32D1012205
:1048000011027D48FEF7B4FB0022E1027B48FEF76F
:10481000AFFB0022E1017A48FEF7AAFB0022210249
:104820007748FEF7A5FB002261027548FEF7A0FB62
:10483000002240217048FEF79BFB002280216E4839
:10484000FEF796FB012208216E48FEF791FB00223D
:1048500010216C48FEF78CFB002220216948FEF7EE
:1048600087FB8FE1052C35D1012211026248FEF74A
:104870007FFB00224FF400516048FEF779FB0022D5
:104880004FF400715E48FEF773FB00224FF4806125
:104890005B48FEF76DFB0122D1025948FEF768FB29
:1048A000012240215448FEF763FB00228021524838
:1048B000FEF75EFB012208215248FEF759FB012258
:1048C00010215048FEF754FB012240214D48FEF7CD
:1048D0004FFB57E1062C35D1012211024648FEF765
:1048E00047FB00224FF400514448FEF741FB0022F1
:1048F0004FF400714248FEF73BFB00224FF4806109
:104900003F48FEF735FB0122D1023D48FEF730FB60
:10491000012240213848FEF72BFB00228021364837
:10492000FEF726FB012208213648FEF721FB012273
:1049300010213448FEF71CFB002240213148FEF7CD
:1049400017FB1FE1072C35D1012211022A48FEF77F
:104950000FFB00224FF400512848FEF709FB00220C
:104960004FF400712648FEF703FB00224FF48061EC
:104970002348FEF7FDFA0122D1022148FEF7F8FA9A
:10498000012240211C48FEF7F3FA002280211A4838
:10499000FEF7EEFA012208211A48FEF7E9FA002292
:1049A00010211848FEF7E4FA012220211548FEF7ED
:1049B000DFFAE7E0082C3FD1012211020E48FEF792
:1049C000D7FA0022A1020D48FEF7D2FA0022A10177
:1049D0000B48FEF7CDFA0022E1010948FEF7C8FABC
:1049E0000122D1020648FEF7C3FA01224021024803
:1049F000FEF7BEFA00220BE000140240000802405D
:104A0000002002400010024000000240001C024052
:104A100080215D48FEF7ACFA012208215B48FEF7D1
:104A2000A7FA002210215948FEF7A2FA00224021DD
:104A30005648FEF79DFAA5E0092C35D10122110256
:104A40005148FEF795FA00224FF400515048FEF706
:104A50008FFA00224FF400714E48FEF789FA0022C7
:104A60004FF480614B48FEF783FA0122D102494896
:104A7000FEF77EFA002240214348FEF779FA002231
:104A800080214148FEF774FA002208213F48FEF7D2
:104A90006FFA002210213D48FEF76AFA00224021F9
:104AA0003A48FEF765FA6DE00A2C35D10122110271
:104AB0003548FEF75DFA00224FF400513448FEF706
:104AC00057FA00224FF400713248FEF751FA0022E3
:104AD0004FF480612F48FEF74BFA0122D1022D4896
:104AE000FEF746FA012240212748FEF741FA00224C
:104AF00080212548FEF73CFA002208212348FEF7D2
:104B000037FA002210212148FEF732FA0022402114
:104B10001E48FEF72DFA35E00B2C33D1012211028D
:104B20001948FEF725FA00224FF400511848FEF705
:104B30001FFA012251021748FEF71AFA00224FF419
:104B400080611448FEF714FA0122D1021148FEF7E1
:104B50000FFA012240210C48FEF70AFA00228021B8
:104B60000948FEF705FA002208210848FEF700FA76
:104B7000002210210548FEF7FBF9002240210348DE
:104B8000FEF7F6F910BD00000014024000100240CC
:104B9000000802400020024000BFFEE710B586B0CA
:104BA000FE480088FE490988884274D0FD48FC49C7
:104BB00009880844FC4902680A6040684860084661
:104BC000007828BB08464078F849097888421FD108
:104BD00001F08CFB0446F648007840B1F4480078B8
:104BE000F149C8700821F048FBF7DAFF10E0F148FE
:104BF0000078844205D1EC48C4700821FBF7D0FF4F
:104C000006E0FCF727FCE848C4700821FBF7C8FF62
:104C1000E5480078012825D1E3484078E349097840
:104C200088421FD101F062FB0446E148007840B1A0
:104C3000DF480078DC49C8700821DB48FBF7B0FF8B
:104C400010E0DC480078844205D1D748C4700821C0
:104C5000FBF7A6FF06E0FCF7FDFBD348C470082174
:104C6000FBF79EFFD0480078022826D1CE48407836
:104C7000CE490978884220D101F038FB0446CC485F
:104C8000007848B1CA480078C749C8700821C648AA
:104C9000FBF786FF11E0D6E1C6480078844205D1D3
:104CA000C148C4700821FBF77BFF06E0FCF7D2FB8C
:104CB000BD48C4700821FBF773FFBB480078032888
:104CC00025D1B9484078B949097888421FD101F007
:104CD0000DFB0446B648007840B1B5480078B249AB
:104CE000C8700821B048FBF75BFF10E0B1480078BE
:104CF000844205D1AC48C4700821FBF751FF06E09F
:104D0000FCF7A8FBA848C4700821FBF749FFA64898
:104D10000078042825D1A4484078A449097888421D
:104D20001FD101F0E3FA0446A148007840B1A04841
:104D300000789D49887008219B48FBF731FF10E0FF
:104D40009C480078844205D1974884700821FBF77D
:104D500027FF06E0FCF77EFB934884700821FBF7F1
:104D60001FFF91480078052876D18F4840788F49F9
:104D70000978884270D18C48C0788B49897840EA9C
:104D800001208D4908808A48007840B18848007821
:104D90008549887008218448FBF702FF5CE086485B
:104DA00000884FF6DC7188421CDD844840787E49DB
:104DB000887008217C48FBF7F3FE794800880830AA
:104DC0007749088008460088C82190FBF1F201FB72
:104DD00012007349088003F057FCFCF73BFB0020EE
:104DE00006B010BD012076490870FCF787F804462C
:104DF00070480078844216D16B4884700821FBF714
:104E0000CFFE67480088083065490880084600885A
:104E1000C82190FBF1F201FB120061490880FCF708
:104E200019FB0120DCE7604884700821FBF7B8FE1D
:104E30005B48008808305A49088008460088C82125
:104E400090FBF1F201FB12005549088003F01CFCB5
:104E5000FCF700FB0020C3E75348007810280FD16F
:104E60005148407851490978884209D10AF0B0FD8B
:104E70004F4800784C49887008214B48FBF790FE5A
:104E800049480078112845D1474840784749097872
:104E900088423FD100214B48FFF720F94948FFF7EE
:104EA00079F84948FEF709FF4748FEF796FE40208B
:104EB000019001200290032004900220039001A998
:104EC0004248FDF73FFF002240214048FEF750F8DE
:104ED000BE203F490870487004208870ED20C873D8
:104EE0000874FCF737FD3248007840B1304800784C
:104EF0002D49887008212C48FBF752FE0AE000205B
:104F00002949887008212848FBF74AFE03F0BCFBBA
:104F1000FCF7A0FA244800781A283AD122484078B1
:104F200022490978884234D12148007840B120488C
:104F300000781D49887008211B48FBF731FE28E0E6
:104F400003F0A2FBFCF786FAFCF75AFD044618486A
:104F5000007840B11648007813498870082112483B
:104F6000FBF71EFE15E000200F49887004F00100D9
:104F7000C870C4F340000871C4F380004871C4F3E2
:104F8000C0008871C4F30010C87108210648FBF7FF
:104F900007FE054800781C2827D11BE06A00002086
:104FA00068000020DD32002060000020AE000020FC
:104FB000040000209F00002094000020A533002062
:104FC0009E00002038320020903200200014024061
:104FD000CC3200201D4840781D490978884204D110
:104FE000012004F057FEFEF76BF8184800781D28E2
:104FF00019D11648407816490978884213D11548C6
:10500000007840B1134800781049887008210F4893
:10501000FBF7C6FD07E0104800780C4988700821AE
:105020000A48FBF7BDFD0D48008808300B49088091
:1050300008460088C82190FBF1F201FB12000749E5
:1050400008800120CCE60020CAE6000060000020B5
:10505000AE000020040000209A000020680000201C
:1050600030B585B00546F848296801606968416037
:105070000078D8B9F4484078F4490978884215D1C5
:1050800001F034F90446F248007820B1F048007885
:10509000ED49C8700AE0EF480078844202D1EA483E
:1050A000C47003E0FCF7D6F9E748C470E64800781E
:1050B00001281BD1E4484078E4490978884215D199
:1050C00001F014F90446E248007820B1E048007885
:1050D000DD49C8700AE0DF480078844202D1DA482E
:1050E000C47003E0FCF7B6F9D748C470D64800781E
:1050F00002281BD1D4484078D4490978884215D178
:1051000001F0F4F80446D248007820B1D048007885
:10511000CD49C8700AE0CF480078844202D1CA481D
:10512000C47003E0FCF796F9C748C470C64800781D
:1051300003281BD1C4484078C4490978884215D156
:1051400001F0D4F80446C248007820B1C048007885
:10515000BD49C8700AE0BF480078844202D1BA480D
:10516000C47003E0FCF776F9B748C470B64800781D
:1051700004281BD1B4484078B4490978884215D135
:1051800001F0B4F80446B248007820B1B048007885
:10519000AD4988700AE0AF480078844202D1AA483D
:1051A000847003E0FCF756F9A7488470A64800789D
:1051B00005283CD1A4484078A4490978884236D1D2
:1051C000A1488078A049C97840EA0120A249088016
:1051D0009F48007820B19E4800789B49887026E05F
:1051E0009D4800884FF6DC71884208DD9B48407876
:1051F0009549887003F048FAFCF72CF917E09848B5
:10520000007810B9012096490870FBF777FE044634
:1052100090480078844204D18B488470FCF71AF9D6
:1052200005E08948847003F02FFAFCF713F98648EB
:10523000007810280BD18448407884490978884246
:1052400005D10AF0C5FB824800787F4988707E4806
:105250000078112844D17C4840787C4909788842FC
:105260003ED100217F48FEF739FF7E48FEF792FECF
:105270007D48FEF722FD7C48FEF7AFFC4020009001
:105280000120019003200390022002906946774894
:10529000FDF758FD002240217448FDF769FEBE204D
:1052A00073490870487004208870ED20C873087432
:1052B00069480088002802DD6B48FEF7FEFCFCF719
:1052C00049FB6348007820B1614800785E498870E6
:1052D00006E000205C49887003F0D6F9FCF7BAF8C4
:1052E000594800781A283CD15748407857490978DE
:1052F000884236D15648007820B155480078524946
:1053000088702EE003F0C0F9FCF7A4F8FCF778FBF6
:1053100004464F48007820B14D4800784A498870CB
:105320001FE01F2C09D10020474988700120C87058
:10533000087148718871C87113E0484890F83300CB
:105340004149887004F00100C870C4F3400008713E
:10535000C4F380004871C4F3C0008871C4F3001026
:10536000C8713948007813280DD13948007820B128
:10537000374800783449887005E03E4800F0A2FBC9
:1053800000203149887030480078152814D12E4803
:1053900040782E49097888420ED12D48007820B1F6
:1053A0002B4800782849887006E03248C03800F061
:1053B00089FB00202449887023480078192814D1DB
:1053C000214840782149097888420ED12048007848
:1053D00020B11F4800781C49887006E025488038B5
:1053E00000F070FB002018498870174800781728D3
:1053F00014D1154840781549097888420ED11448CF
:10540000007820B1124800780F49887006E01948EA
:10541000403800F057FB00200B4988700A4800789C
:105420001C280AD10848407808490978884204D1E4
:10543000012004F02FFCFDF743FE034801682960BA
:105440004068686005B030BD60000020AE000020FC
:10545000040000209F00002094000020A5330020BD
:105460009E000020383200209032002000140240BC
:10547000CC320020C0000F082DE9F04704460E464C
:10548000DDE90AC8DDE908574FF000091146102E82
:1054900003DDCC48C07DBDE8F087042C0DD0CA48A0
:1054A0000078FF2803D0C8480078A04202D1C6483F
:1054B000047002E0C348007EEDE73CBB33B34829EB
:1054C00002DDC048C07EE6E7042B02DDBD48407E19
:1054D000E1E7BE4890F90000401C20B1BB4890F9BC
:1054E0000000984212D1BA48405C10B1B548007F24
:1054F000D1E758B2DFF8D4A28AF800000120DFF823
:10550000D0A20AF80100B3480078C4E7A4B99BB957
:10551000482902DDAB48407FBDE7AD48405C01282B
:1055200002D1A848807FB6E70120DFF8A4A20AF8DC
:105530000100A8480078AEE7012C18D1BBB915B11D
:10554000A048807EA7E7482902DD9E48C07FA2E7E9
:10555000A148007818B19B4890F820009BE70120F3
:10556000DFF874A28AF800009A48007893E7012CCB
:105570001AD1CBB1012D03DD924890F832008AE7B1
:10558000482902DD8F48C07F85E79348007818B12D
:105590008C4890F820007EE70120DFF83CA28AF8D2
:1055A00000008C48007876E7022C1DD1E3B1062B71
:1055B0001AD0012D03DD834890F836006BE74829A7
:1055C00003DD804890F8210065E78448007818B131
:1055D0007C4890F822005EE70120DFF800A28AF8FC
:1055E00000007C48007856E7022C1BD1062B19D10D
:1055F0001DB1744890F835004DE7482903DD714826
:1056000090F8210047E77548007818B16D4890F888
:10561000220040E70120DFF8C4A18AF800006D48AD
:10562000007838E7022C2BD153BB012D03DD6548F0
:1056300090F833002FE7482903DD624890F82300F3
:1056400029E767480078B8B90120DFF890A18AF807
:10565000000064480078401CDFF888A18AF8000048
:1056600050460078022804DB0120DFF874A18AF894
:105670000000584800780EE7524890F824000AE7E6
:10568000032C1DD1032B1BD0D3B1012D03DD4D48BD
:1056900090F83900FFE6482903DD4A4890F82500D4
:1056A000F9E65148007818B1464890F82600F2E62D
:1056B0000120DFF834A18AF8000046480078EAE6C5
:1056C000032C1AD1CBB91DB13E4890F83800E2E660
:1056D000482903DD3B4890F82500DCE64248007885
:1056E00018B1384890F82600D5E60120DFF8F8A078
:1056F0008AF8000037480078CDE6032C26D1032B2A
:1057000024D1012D03DD2F4890F83700C3E6374838
:105710000078B8B90120DFF8D0A08AF8000034483A
:105720000078401CDFF8C8A08AF8000050460078D6
:10573000022804DB0120DFF8B4A08AF80000254825
:105740000078A8E61F4890F82700A4E6042C35D17D
:10575000012A1ED10120DFF89CA08AF80000022B4C
:1057600001DB632B03DD174890F8280093E6022B3A
:1057700007D11E2D01DB322D0BDD124890F82A00D7
:1057800089E6012D01DB632D03DD0E4890F82B0027
:1057900081E6012F12D11848007858B94CEA08293F
:1057A000B9F5FA4F03DD074890F82C0073E6094875
:1057B000007870E6034890F82D006CE60548007804
:1057C00069E60000A5330020A1000020A20000200F
:1057D000F53300209F000020A3000020A40000203B
:1057E000A5000020A7000020A8000020A90000209C
:1057F000AA000020AB000020AC00002010B5002063
:105800000F4908600F48006820F440600D490860A7
:105810000846006840F48060086000200A49C1F82A
:105820009402022004F03AFB01200549086002209E
:1058300004F034FB00200449C1F8900210BD0000C0
:1058400090824342001C02400080434200B587B072
:1058500000BF002001901048006840F080000E4911
:1058600008600846006800F08000019000BF00BF9B
:10587000302002900120039004900220059002A99C
:105880000648FDF75FFA0120054908600549C1F89F
:10589000900207B000BD000030380240001C0240FA
:1058A000948243420080434210B500200F490860B3
:1058B0000F48006820F440600D4908600846006801
:1058C00040F48060086001200A49C1F89402022077
:1058D00004F0E4FA012005490860022004F0DEFA31
:1058E00000200449C1F8900210BD0000908243429C
:1058F000001C02400080434270B505460024164853
:10590000006820F440601449086008460068086098
:10591000002616E0002011490860022004F0BEFABB
:1059200001200F49C1F890026006040E0B487C3834
:10593000006808B1601CC4B2012004F0AFFA701C0A
:10594000C6B2082EE6DB15B9FFF7AEFF01E0FFF7A0
:1059500055FF204670BD0000001C0240908243426B
:105960000080434270B504461548006820F440604A
:10597000134908600846006840F480600860002011
:1059800010490860002517E0E0090E49091D08606C
:105990006006040E022004F081FA01200A49C1F8D1
:1059A0009002022004F07AFA0020064908600220E2
:1059B00004F074FA681CC5B2082DE5DB70BD000068
:1059C000001C0240908243420080434210B50F48C1
:1059D000006820F440600D4908600846006840F403
:1059E0008060086001200A4908600A49C1F89002F5
:1059F000042004F053FA002005490860042004F054
:105A00004DFA00200349C1F8900210BD001C02406D
:105A1000948243420080434210B50F48006820F44E
:105A200040600D4908600846006840F480600860E6
:105A300000200A4908600A49C1F89402042004F0D1
:105A40002DFA0120054908600549C1F89402042097
:105A500004F024FA10BD0000001C02409082434272
:105A60000080434210B500241348006820F44060D1
:105A70001149086008460068086001200F49086065
:105A800004F00CFA01200E49C1F8900204F006FA65
:105A900007E0601CC4B2FA2C03DDFFF7BDFF012054
:105AA00010BD0648803800680028F2D10349091F5C
:105AB000086000BFF4E70000001C024094824342EB
:105AC0000080434230B591B00546402101A8FAF765
:105AD000E4FE0C2201A9284602F0F6FF002407E0AC
